:020000040800F2
:100000000050002049080008ED070008F507000827
:10001000FD070008050800080D08000800000000A2
:10002000000000000000000000000000F154000883
:100030001508000800000000D1560008210800083B
:10004000910800089108000891080008910800082C
:10005000910800089108000891080008910800081C
:10006000910800089108000891080008910800080C
:1000700091080008910800089108000891080008FC
:1000800091080008910800089108000891080008EC
:1000900091080008910800089108000891080008DC
:1000A00091080008910800089108000891080008CC
:1000B00091080008910800089108000891080008BC
:1000C00091080008910800089108000891080008AC
:1000D000910800089108000891080008910800089C
:1000E000910800089108000891080008000000002D
:1000F0000000000000000000000000000000000000
:0C01000000000000000000005FF808F1A3
:1001100010B5054C237833B9044B13B10448AFF341
:1001200000800123237010BD10000020000000009B
:10013000505C000808B5034B1BB103490348AFF3FB
:10014000008008BD0000000014000020505C000882
:10015000034613F8012B002AFBD1181A0138704707
:1001600080B500AF00F096FB00F042F800F002F915
:1001700000F08EF800F030F900F0C8F802F0FEFB55
:10018000104A0021104802F05FFC03460F4A13603A
:100190000F4A00210F4802F057FC03460E4A136035
:1001A0000E4A00210E4802F04FFC03460D4A136030
:1001B0000D4802F0F3FC03460C4A136002F010FCF9
:1001C00000BFFDE7D05C00082D040008EC00002013
:1001D000F45C0008C9040008F0000020185D000865
:1001E00021050008F40000203C5D0008F800002014
:1001F00080B594B000AF07F12803282200211846EB
:1002000005F0ECFC07F1140300221A605A609A60B2
:10021000DA601A613B1D00221A605A609A60DA6047
:100220000223BB620123BB631023FB6300237B64B7
:1002300007F12803184601F055FC0346002B01D0B6
:1002400000F0AEF90F237B610023BB610023FB614B
:1002500000233B6200237B6207F114030021184650
:1002600001F0C2FE0346002B01D000F099F90223F1
:100270007B600023FB603B1D184602F043F80346F9
:10028000002B01D000F08CF900BF5037BD4680BD77
:1002900080B584B000AF3B1D00221A605A609A609E
:1002A000184B194A1A60174B00229A60154B00220E
:1002B0001A73144B00221A75124B4FF46022DA6144
:1002C000104B00225A600F4B01221A610D4800F0BA
:1002D00067FB0346002B01D000F062F900237B602E
:1002E0000123BB600023FB603B1D1946054800F05D
:1002F0001BFE0346002B01D000F052F900BF10375F
:10030000BD4680BD2C0000200024014080B500AF18
:10031000164B174A1A60154B10225A60134B0022D5
:100320009A60124B0022DA60104B00221A610F4BC8
:1003300000225A610D4B00221A760C4B00225A768D
:100340000A4B00229A76094B0022DA76074B0022EC
:100350001A77064B00225A77044800F078FF0346CC
:10036000002B01D000F01CF900BF80BDA4000020CC
:100370000064004080B586B000AF07F1080300229A
:100380001A605A609A60DA60114B9B69104A43F018
:10039000040393610E4B9B6903F004037B607B684D
:1003A000002202210B4801F085FB0223BB600123E0
:1003B000FB6000233B6102237B6107F108031946C0
:1003C000044801F0F3F900BF1837BD4680BD00BFF7
:1003D000001002400008014080B500AF114B124AE6
:1003E0001A60104B4FF4E1325A600E4B00229A60B3
:1003F0000C4B0022DA600B4B00221A61094B0C22D5
:100400005A61084B00229A61064B0022DA610548C6
:1004100002F0E4F80346002B01D000F0C1F800BF61
:1004200080BD00BF5C00002000380140B0B58AB03C
:1004300000AF78601F4800F08BFB4FF0FF311D4884
:1004400000F060FC0346002B13D11B4B1B684FF0E0
:10045000FF31184602F03CFC164800F059FD0346F7
:100460009AB2164B1A80144B1B68184602F08EFC89
:1004700017E0134B07F10C041D460FCD0FC495E890
:10048000070003C4227007F10C031846FFF760FE53
:1004900003469AB207F10C014FF0FF33094802F00E
:1004A000EDF8044800F002FC4FF47A7000F054FAC2
:1004B000C0E700BF2C000020F8000020EA00002068
:1004C0009C5C00085C00002080B584B000AF7860C0
:1004D000104B1B684FF0FF31184602F0F9FB0E4B32
:1004E0001B88FB810B4B1B68184602F04FFCFB89F5
:1004F0001D2B05D801220221084801F0DBFA04E097
:1005000000220221054801F0D5FA4FF47A7000F07C
:1005100023FADDE7F8000020EA000020000801408F
:1005200080B582B000AF7860174B02221A61164B7B
:1005300000229A60144B0022DA60134B0A221A60E0
:10054000124B1B684FF0FF31184602F0C1FB104BF5
:100550001B88DAB20F4B1A700D4B1B881B0A9BB21B
:10056000DAB20C4B5A70094B1B68184602F00EFCAD
:10057000094B084A0449094800F064FF4FF47A70B7
:1005800000F0EAF900BFDBE7CC000020F800002013
:10059000EA000020E8000020E4000020A400002081
:1005A00080B400AF72B600BF00BFFDE780B584B075
:1005B00000AF184B9B69174A43F001039361154B39
:1005C0009B6903F00103BB60BB68124BDB69114AF6
:1005D00043F08053D3610F4BDB6903F080537B60A2
:1005E0007B6800220F216FF0010001F0B6F80A4B82
:1005F0005B68FB60FB6823F0E063FB60FB6843F033
:100600008063FB60044AFB68536000BF1037BD463F
:1006100080BD00BF001002400000014080B588B0DE
:1006200000AF786007F1100300221A605A609A60E8
:10063000DA607B681B68144A934221D1134B9B6993
:10064000124A43F400739361104B9B6903F40073E7
:10065000FB60FB680D4B9B690C4A43F004039361FC
:100660000A4B9B6903F00403BB60BB6801233B6139
:1006700003237B6107F110031946054801F096F842
:1006800000BF2037BD4680BD00240140001002405D
:100690000008014080B58AB000AF786007F114030C
:1006A00000221A605A609A60DA607B681B68254AEB
:1006B000934243D1244BDB69234A43F00073D36157
:1006C000214BDB6903F000733B613B691E4B9B6967
:1006D0001D4A43F0080393611B4B9B6903F0080319
:1006E000FB60FB684FF480737B610023BB610023D8
:1006F000FB6107F114031946144801F057F84FF451
:1007000000737B610223BB6103233B6207F1140387
:1007100019460E4801F04AF80D4B5B687B627B6A14
:1007200023F4C0437B627B6A43F0E0637B627B6AB5
:1007300043F480437B62064A7B6A536000BF2837DC
:10074000BD4680BD0064004000100240000C014026
:100750000000014080B588B000AF786007F1100359
:1007600000221A605A609A60DA607B681B681C4A33
:10077000934231D11B4B9B691A4A43F480439361E6
:10078000184B9B6903F48043FB60FB68154B9B6926
:10079000144A43F004039361124B9B6903F0040372
:1007A000BB60BB684FF400733B6102237B61032392
:1007B000FB6107F1100319460B4800F0F7FF4FF4F7
:1007C00080633B6100237B610023BB6107F1100361
:1007D0001946054800F0EAFF00BF2037BD4680BD3E
:1007E00000380140001002400008014080B400AF12
:1007F00000BFFDE780B400AF00BFFDE780B400AFED
:1008000000BFFDE780B400AF00BFFDE780B400AFDC
:1008100000BFFDE780B400AF00BFBD4680BC70479D
:1008200080B500AF00F07CF804F0F8F80346012B27
:1008300001D004F071FF00BF80BD80B400AF00BFE5
:10084000BD4680BC70470000FFF7F7FF0B480C491E
:100850000C4A002302E0D458C4500433C4188C421C
:10086000F9D3094A094C002301E013600432A24283
:10087000FBD305F0BBF9FFF773FC704700000020C5
:10088000100000209C5D000810000020481A002085
:10089000FEE7000080B500AF084B1B68074A43F035
:1008A00010031360032000F04DFF0F2000F008F844
:1008B000FFF77CFE0023184680BD00BF00200240E9
:1008C00080B582B000AF7860124B1A68124B1B786B
:1008D00019464FF47A73B3FBF1F3B2FBF3F3184606
:1008E00000F057FF0346002B01D001230EE07B6888
:1008F0000F2B0AD8002279684FF0FF3000F02DFF4F
:10090000064A7B681360002300E00123184608377D
:10091000BD4680BD0000002008000020040000202B
:1009200080B400AF054B1B781A46054B1B68134477
:10093000034A136000BFBD4680BC7047080000201A
:10094000FC00002080B400AF024B1B681846BD4677
:1009500080BC7047FC00002080B584B000AF786098
:10096000FFF7F0FFB8607B68FB60FB68B3F1FF3F07
:1009700005D00A4B1B781A46FB681344FB6000BF86
:10098000FFF7E0FF0246BB68D31AFA689A42F7D82D
:1009900000BF00BF1037BD4680BD00BF080000206B
:1009A00080B586B000AF78600023FB7500233B6103
:1009B0000023BB600023FB607B68002B01D1012377
:1009C000BEE07B689B68002B7B689B6A002B09D18B
:1009D0007B680022DA627B68002283F82420786832
:1009E000FFF71CFE786800F0F1FB0346FB757B689F
:1009F0009B6A03F01003002B40F09980FB7D002BD5
:100A000040F095807B689B6A23F4885323F00203AF
:100A100043F002027B689A627B685A687B68DB69F4
:100A20001A437B681B7B5B001343BA681343BB60AC
:100A30007B689B68B3F5807F03D07B689B68012B44
:100A400002D14FF4807300E000233A6913433B6105
:100A50007B681B7D012B19D17B681B7B002B09D187
:100A60007B689B69013B5A033B69134343F4006372
:100A70003B610BE07B689B6A43F020027B689A62D3
:100A80007B68DB6A43F001027B68DA627B681B6883
:100A90005B6823F469417B681B683A690A435A60C2
:100AA0007B681B689A68284B13407A681268B9689B
:100AB0000B4393607B689B68B3F5807F03D07B68B2
:100AC0009B68012B04D17B681B69013B1B05FB6004
:100AD0007B681B68DB6A23F470017B681B68FA681B
:100AE0000A43DA627B681B689A68184B1340BA683D
:100AF0009A420BD17B680022DA627B689B6A23F002
:100B0000030343F001027B689A6218E07B689B6AEA
:100B100023F0120343F010027B689A627B68DB6A61
:100B200043F001027B68DA620123FB7507E07B6812
:100B30009B6A43F010027B689A620123FB75FB7D80
:100B400018461837BD4680BDFDF7E1FFFE0E1FFFBA
:100B500080B584B000AF78600023FB737B6893F8A6
:100B60002430012B01D1022398E07B68012283F815
:100B70002420786800F0D0FA0346FB73FB7B002B3F
:100B800040F087807B689B6A23F4407323F0010365
:100B900043F480727B689A627B681B68414A934287
:100BA00005D1414B5B6803F47023002B15D17B68A2
:100BB0009B6A23F480127B689A627B681B685B687F
:100BC00003F48063002B26D07B689B6A23F4405398
:100BD00043F480527B689A621DE07B689B6A43F411
:100BE00080127B689A627B681B682F4A934204D00C
:100BF0007B681B682B4A93420DD12B4B5B6803F437
:100C00008063002B07D07B689B6A23F4405343F436
:100C100080527B689A627B689B6A03F48053002B46
:100C200006D07B68DB6A23F006027B68DA6202E0AA
:100C30007B680022DA627B68002283F824207B68CC
:100C40001B686FF002021A607B681B689B6803F4E4
:100C50006023B3F5602F13D17B681B68114A934260
:100C600005D1114B5B6803F47023002B08D17B681E
:100C70001B689A687B681B6842F4A0029A600CE0CB
:100C80007B681B689A687B681B6842F480129A60D4
:100C900003E07B68002283F82420FB7B1846103792
:100CA000BD4680BD002801400024014080B584B0CD
:100CB00000AF78600023FB737B6893F82430012B2E
:100CC00001D102231AE07B68012283F8242078688E
:100CD00000F07CFA0346FB73FB7B002B09D17B6899
:100CE0009B6A23F4885323F0010343F001027B68DD
:100CF0009A627B68002283F82420FB7B1846103719
:100D0000BD4680BD90B587B000AF786039600023E4
:100D10007B610023FB6000233B61FFF713FE7861DA
:100D20007B681B689B6803F48073002B0BD07B6887
:100D30009B6A43F020027B689A627B68002283F8FA
:100D400024200123D3E07B681B685B6803F4807375
:100D5000002B31D17B681B68DB6A03F47003002B26
:100D60002AD121E03B68B3F1FF3F1DD03B68002B47
:100D700007D0FFF7E7FD02467B69D31A3A689A422B
:100D800012D27B681B681B6803F00203002B0BD197
:100D90007B689B6A43F004027B689A627B6800224E
:100DA00083F824200323A2E07B681B681B6803F000
:100DB0000203002BD6D070E04F4B1C68022001F0DC
:100DC00057FB0346B4FBF3F27B681B6819694B4B76
:100DD0000B40002B18D17B681B68D968484B0B402F
:100DE000002B11D17B681B681969464B0B40002B07
:100DF00008D17B681B68D968434B0B40002B01D19D
:100E0000142320E029231EE07B681B6819693D4BF1
:100E10000B40002B06D17B681B68D9683A4B0B400E
:100E2000002B0DD07B681B681969384B0B40002BD9
:100E300008D17B681B68D968344B0B40002B01D16B
:100E4000542300E0FC2302FB03F33B6121E03B68F9
:100E5000B3F1FF3F1AD03B68002B07D0FFF772FDBC
:100E600002467B69D31A3A689A420FD2FB683A6904
:100E70009A420BD97B689B6A43F004027B689A62B2
:100E80007B68002283F82420032330E0FB680133D1
:100E9000FB60FB683A699A42D9D87B681B686FF09F
:100EA00012021A607B689B6A43F400727B689A6244
:100EB0007B681B689B6803F46023B3F5602F15D132
:100EC0007B681B7B002B11D17B689B6A23F48072AB
:100ED0007B689A627B689B6A03F48053002B05D180
:100EE0007B689B6A43F001027B689A620023184684
:100EF0001C37BD4690BD00BF00000020244992244D
:100F000024499200922449129224490049922400D3
:100F100080B483B000AF78607B681B68DB6C1846D8
:100F20000C37BD4680BC704780B485B000AF786098
:100F300039600023FB730023BB607B6893F8243087
:100F4000012B01D10223DCE07B68012283F82420FD
:100F50003B685B68062B1CD87B681B68596B3B6839
:100F60005A6813469B001344053B1F2202FA03F301
:100F7000DB4319403B6818683B685A6813469B007E
:100F80001344053B00FA03F27B681B680A435A636B
:100F90003CE03B685B680C2B1CD87B681B68196BBA
:100FA0003B685A6813469B001344233B1F2202FAF6
:100FB00003F3DB4319403B6818683B685A681346E3
:100FC0009B001344233B00FA03F27B681B680A432F
:100FD0001A631BE07B681B68D96A3B685A68134632
:100FE0009B001344413B1F2202FA03F3DB431940E9
:100FF0003B6818683B685A6813469B001344413BA2
:1010000000FA03F27B681B680A43DA623B681B68DC
:10101000092B1CD97B681B68D9683B681A68134682
:101020005B0013441E3B072202FA03F3DB43194023
:101030003B6898683B681A6813465B0013441E3B84
:1010400000FA03F27B681B680A43DA6019E07B68E8
:101050001B6819693B681A6813465B001344072232
:1010600002FA03F3DB4319403B6898683B681A684F
:1010700013465B00134400FA03F27B681B680A43C3
:101080001A613B681B68102B03D03B681B68112B4F
:1010900032D17B681B681D4A934225D17B681B684F
:1010A0009B6803F40003002B26D17B681B689A68B9
:1010B0007B681B6842F400029A603B681B68102B37
:1010C0001AD1134B1B68134AA2FB03239A0C134635
:1010D0009B0013445B00BB6002E0BB68013BBB604C
:1010E000BB68002BF9D107E07B689B6A43F02002C4
:1010F0007B689A620123FB737B68002283F82420BB
:10110000FB7B18461437BD4680BC70470024014065
:101110000000002083DE1B4380B584B000AF786000
:101120000023FB600023BB607B681B689B6803F0A7
:101130000103012B40D07B681B689A687B681B68A1
:1011400042F001029A601F4B1B681F4AA2FB032357
:101150009B0CBB6002E0BB68013BBB60BB68002B23
:10116000F9D1FFF7EFFBF8601FE0FFF7EBFB02465A
:10117000FB68D31A022B18D97B681B689B6803F0A5
:101180000103012B11D07B689B6A43F010027B683E
:101190009A627B68DB6A43F001027B68DA627B68F3
:1011A000002283F82420012307E07B681B689B68EA
:1011B00003F00103012BD8D1002318461037BD4698
:1011C00080BD00BF0000002083DE1B4380B584B0DB
:1011D00000AF78600023FB607B681B689B6803F0AE
:1011E0000103012B2ED17B681B689A687B681B6802
:1011F00022F001029A60FFF7A5FBF8601BE0FFF701
:10120000A1FB0246FB68D31A022B14D97B681B682A
:101210009B6803F00103012B0DD17B689B6A43F0AF
:1012200010027B689A627B68DB6A43F001027B688C
:10123000DA62012307E07B681B689B6803F0010307
:10124000012BDCD0002318461037BD4680BD80B589
:1012500084B000AF78607B68002B01D10123EDE002
:101260007B6893F82030DBB2002B02D17868FFF75F
:1012700011FA7B681B681A687B681B6842F00102E0
:101280001A60FFF75FFBF86012E0FFF75BFB0246B6
:10129000FB68D31A0A2B0BD97B685B6A43F40032D4
:1012A0007B685A627B68052283F820200123C5E011
:1012B0007B681B685B6803F00103002BE5D07B684B
:1012C0001B681A687B681B6822F002021A60FFF72D
:1012D00039FBF86012E0FFF735FB0246FB68D31AD2
:1012E0000A2B0BD97B685B6A43F400327B685A6235
:1012F0007B68052283F8202001239FE07B681B6820
:101300005B6803F00203002BE5D17B681B7E012B99
:1013100008D17B681B681A687B681B6842F08002F2
:101320001A6007E07B681B681A687B681B6822F0FC
:1013300080021A607B685B7E012B08D17B681B688A
:101340001A687B681B6842F040021A6007E07B68FD
:101350001B681A687B681B6822F040021A607B6871
:101360009B7E012B08D17B681B681A687B681B6811
:1013700042F020021A6007E07B681B681A687B68ED
:101380001B6822F020021A607B68DB7E012B08D1EB
:101390007B681B681A687B681B6822F010021A6061
:1013A00007E07B681B681A687B681B6842F01002C4
:1013B0001A607B681B7F012B08D17B681B681A6849
:1013C0007B681B6842F008021A6007E07B681B68B4
:1013D0001A687B681B6822F008021A607B685B7FD2
:1013E000012B08D17B681B681A687B681B6842F078
:1013F00004021A6007E07B681B681A687B681B6838
:1014000022F004021A607B689A687B68DB681A43E2
:101410007B681B691A437B685B6942EA03017B684E
:101420005B685A1E7B681B680A43DA617B6800228E
:101430005A627B68012283F8202000231846103767
:10144000BD4680BD80B489B000AFF860B9607A60F5
:101450003B60FB6893F82030FB77FB681B689B6858
:10146000BB61FB7F012B03D0FB7F022B40F0AD80E3
:10147000BB6903F08063002B0AD1BB6903F00063F2
:10148000002B05D1BB6903F08053002B00F0958041
:10149000BB691B0E03F003037B6101227B699A4049
:1014A0003B681A60BB689B68002B0DD1BB681B684A
:1014B0005A05BB68DB68F96809681A437B69183309
:1014C0001B010B441A600FE0BB685B68DA00BB6865
:1014D0009B681A43BB68DB68F96809681A437B6933
:1014E00018331B010B441A60FB681968BB681A6942
:1014F0007B6918331B010B4404331A60BB681B7DE6
:10150000012B11D1FB681A687B6918331B01134446
:1015100004331B68FA68116843F480727B691833DE
:101520001B010B4404331A607B6807331B781A06CF
:101530007B6806331B781B041A437B6805331B78D2
:101540001B0213437A68043212781046FA68116855
:1015500043EA00027B691B010B4403F5C6731A6062
:101560007B6803331B781A067B6802331B781B04E5
:101570001A437B6801331B781B0213437A68127885
:101580001046FA68116843EA00027B691B010B44AC
:1015900003F5C4731A60FB681A687B6918331B0172
:1015A00013441B68FA68116843F001027B69183321
:1015B0001B010B441A6000230EE0FB685B6A43F4D6
:1015C0000012FB685A62012306E0FB685B6A43F481
:1015D0008022FB685A62012318462437BD4680BC2E
:1015E0007047000080B485B000AF78607B6803F07E
:1015F0000703FB600C4BDB68BB60BA684FF6FF0368
:101600001340BB60FB681A02BB68134343F0BF631F
:1016100043F40033BB60044ABB68D36000BF143797
:10162000BD4680BC704700BF00ED00E080B400AF55
:10163000044BDB681B0A03F007031846BD4680BC59
:10164000704700BF00ED00E080B483B000AF0346F8
:101650003960FB7197F90730002B0ADB3B68DAB27F
:101660000C4997F907301201D2B20B4483F80023DA
:101670000AE03B68DAB20849FB7903F00F03043B48
:101680001201D2B20B441A7600BF0C37BD4680BCA3
:10169000704700BF00E100E000ED00E080B489B0D9
:1016A00000AFF860B9607A60FB6803F00703FB6184
:1016B000FB69C3F10703042B28BF0423BB61FB694B
:1016C0000433062B02D9FB69033B00E000237B6156
:1016D0004FF0FF32BB6902FA03F3DA43BB681A40EA
:1016E0007B699A404FF0FF317B6901FA03F3D943DC
:1016F0007B680B40134318462437BD4680BC7047B7
:1017000080B582B000AF78607B68013BB3F1807F29
:1017100001D301230FE00A4A7B68013B53600F218C
:101720004FF0FF30FFF790FF054B00229A60044B0B
:1017300007221A60002318460837BD4680BD00BF47
:1017400010E000E080B582B000AF78607868FFF705
:1017500049FF00BF0837BD4680BD80B586B000AFE9
:101760000346B9607A60FB7300237B61FFF75EFF7D
:1017700078617A68B9687869FFF790FF024697F94F
:101780000F3011461846FFF75FFF00BF1837BD4600
:1017900080BD80B582B000AF78607868FFF7B0FF99
:1017A000034618460837BD4680BD000080B48BB0A4
:1017B00000AF7860396000237B6200233B6269E1FF
:1017C00001227B6A02FA03F3FB613B681B68FA693A
:1017D0001340BB61BA69FB699A4240F058813B688B
:1017E0005B689A4A93425ED0984A934275D8984A69
:1017F000934258D0964A93426FD8964A934252D019
:10180000944A934269D8944A93424CD0924A934264
:1018100063D8924A934246D0904A93425DD8122BA5
:101820002AD8122B59D801A252F823F0A718000881
:101830008118000893180008D5180008DB18000864
:10184000DB180008DB180008DB180008DB180008AC
:10185000DB180008DB180008DB180008DB1800089C
:10186000DB180008DB180008DB180008DB1800088C
:10187000891800089D180008794A934213D02CE07B
:101880003B68DB683B6229E03B68DB6804333B6212
:1018900024E03B68DB6808333B621FE03B68DB68A1
:1018A0000C333B621AE03B689B68002B02D1042397
:1018B0003B6213E03B689B68012B05D108233B6228
:1018C0007B68FA691A6109E008233B627B68FA6960
:1018D0005A6103E000233B6200E000BFBB69FF2BBD
:1018E00001D87B6801E07B6804337B61BB69FF2B17
:1018F00002D87B6A9B0002E07B6A083B9B003B614D
:101900007B691A680F213B6901FA03F3DB431A4034
:10191000396A3B6901FA03F31A437B691A603B6831
:101920005B6803F08053002B00F0B1804D4B9B6946
:101930004C4A43F0010393614A4B9B6903F0010356
:10194000BB60BB68484A7B6A9B08023352F823306D
:10195000FB607B6A03F003039B000F2202FA03F390
:10196000DB43FA681340FB607B68404A934213D024
:101970007B683F4A93420DD07B683E4A934207D032
:101980007B683D4A934201D1032306E0042304E02F
:10199000022302E0012300E000237A6A02F003023E
:1019A00092009340FA681343FB602F497B6A9B08BF
:1019B0000233FA6841F823203B685B6803F4801324
:1019C000002B06D02D4B9A682C49BB6913438B60C2
:1019D00006E02A4B9A68BB69DB43284913408B60B9
:1019E0003B685B6803F40013002B06D0234BDA68D6
:1019F0002249BB691343CB6006E0204BDA68BB6920
:101A0000DB431E491340CB603B685B6803F4003343
:101A1000002B06D0194B5A681849BB6913434B6019
:101A200006E0164B5A68BB69DB43144913404B6010
:101A30003B685B6803F48033002B21D00F4B1A689E
:101A40000E49BB6913430B6021E000BF0000321058
:101A500000003110000022100000211000001210C0
:101A60000000111000100240000001400008014079
:101A7000000C01400010014000140140000401402E
:101A80000B4B1A68BB69DB43094913400B607B6A47
:101A900001337B623B681A687B6A22FA03F3002BEE
:101AA0007FF48EAE00BF00BF2C37BD4680BC7047B0
:101AB0000004014080B483B000AF78600B467B80A7
:101AC00013467B707B78002B03D07A887B681A6181
:101AD00003E07B881A047B681A6100BF0C37BD469F
:101AE00080BC704780B586B000AF78607B68002B03
:101AF00001D1012372E27B681B6803F00103002B14
:101B000000F08780924B5B6803F00C03042B0CD031
:101B10008F4B5B6803F00C03082B12D18C4B5B6876
:101B200003F48033B3F5803F0BD1894B1B6803F47A
:101B30000033002B6CD07B685B68002B68D10123DD
:101B40004CE27B685B68B3F5803F06D1804B1B6835
:101B50007F4A43F4803313602EE07B685B68002B80
:101B60000CD17B4B1B687A4A23F480331360784B8B
:101B70001B68774A23F4802313601DE07B685B6851
:101B8000B3F5A02F0CD1724B1B68714A43F480232C
:101B900013606F4B1B686E4A43F4803313600BE095
:101BA0006B4B1B686A4A23F480331360684B1B68D5
:101BB000674A23F4802313607B685B68002B13D093
:101BC000FEF7C0FE386108E0FEF7BCFE02463B6946
:101BD000D31A642B01D9032300E25D4B1B6803F485
:101BE0000033002BF0D014E0FEF7ACFE386108E0C3
:101BF000FEF7A8FE02463B69D31A642B01D90323E2
:101C0000ECE1534B1B6803F40033002BF0D100E0F0
:101C100000BF7B681B6803F00203002B63D04C4BB2
:101C20005B6803F00C03002B0BD0494B5B6803F09F
:101C30000C03082B1CD1464B5B6803F48033002B4C
:101C400016D1434B1B6803F00203002B05D07B68C1
:101C50001B69012B01D00123C0E13D4B1B6823F020
:101C6000F8027B685B69DB00394913430B603AE09B
:101C70007B681B69002B20D0364B01221A60FEF7CF
:101C800061FE386108E0FEF75DFE02463B69D31A4B
:101C9000022B01D90323A1E12D4B1B6803F00203A2
:101CA000002BF0D02A4B1B6823F0F8027B685B699D
:101CB000DB00274913430B6015E0264B00221A6016
:101CC000FEF740FE386108E0FEF73CFE02463B6945
:101CD000D31A022B01D9032380E11D4B1B6803F0AB
:101CE0000203002BF0D17B681B6803F00803002B74
:101CF0003AD07B689B69002B19D0174B01221A60E0
:101D0000FEF720FE386108E0FEF71CFE02463B6944
:101D1000D31A022B01D9032360E10D4B5B6A03F058
:101D20000203002BF0D0012000F0CEFA1CE00A4B99
:101D300000221A60FEF706FE38610FE0FEF702FE91
:101D400002463B69D31A022B08D9032346E100BFA0
:101D5000001002400000424280044242924B5B6A03
:101D600003F00203002BE9D17B681B6803F0040336
:101D7000002B00F0A6800023FB758B4BDB6903F082
:101D80008053002B0DD1884BDB69874A43F0805389
:101D9000D361854BDB6903F08053BB60BB680123D3
:101DA000FB75824B1B6803F48073002B18D17F4BAB
:101DB0001B687E4A43F480731360FEF7C3FD3861ED
:101DC00008E0FEF7BFFD02463B69D31A642B01D938
:101DD000032303E1754B1B6803F48073002BF0D0E1
:101DE0007B68DB68012B06D16F4B1B6A6E4A43F0A0
:101DF000010313622DE07B68DB68002B0CD16A4B7A
:101E00001B6A694A23F001031362674B1B6A664A27
:101E100023F0040313621CE07B68DB68052B0CD104
:101E2000614B1B6A604A43F0040313625E4B1B6AFA
:101E30005D4A43F0010313620BE05B4B1B6A5A4A95
:101E400023F001031362584B1B6A574A23F0040323
:101E500013627B68DB68002B15D0FEF773FD3861D9
:101E60000AE0FEF76FFD02463B69D31A41F2883261
:101E7000934201D90323B1E04B4B1B6A03F00203E9
:101E8000002BEED014E0FEF75DFD38610AE0FEF7AE
:101E900059FD02463B69D31A41F28832934201D977
:101EA00003239BE0404B1B6A03F00203002BEED19F
:101EB000FB7D012B05D13C4BDB693B4A23F0805372
:101EC000D3617B68DB69002B00F08780364B5B6851
:101ED00003F00C03082B61D07B68DB69022B46D131
:101EE000334B00221A60FEF72DFD386108E0FEF743
:101EF00029FD02463B69D31A022B01D903236DE069
:101F0000294B1B6803F00073002BF0D17B681B6A20
:101F1000B3F5803F08D1244B5B6823F400327B6823
:101F20009B68214913434B601F4B5B6823F4741279
:101F30007B68196A7B685B6A0B431B4913434B60E0
:101F40001B4B01221A60FEF7FDFC386108E0FEF72A
:101F5000F9FC02463B69D31A022B01D903233DE069
:101F6000114B1B6803F00073002BF0D035E0104BD1
:101F700000221A60FEF7E6FC386108E0FEF7E2FC9A
:101F800002463B69D31A022B01D9032326E0064BF4
:101F90001B6803F00073002BF0D11EE07B68DB6947
:101FA000012B07D1012319E000100240007000400E
:101FB000600042420B4B5B68FB60FB6803F48032BD
:101FC0007B681B6A9A4206D1FB6803F470127B6837
:101FD0005B6A9A4201D0012300E0002318461837BB
:101FE000BD4680BD0010024080B584B000AF78606F
:101FF00039607B68002B01D10123D0E06A4B1B685C
:1020000003F007033A689A4210D9674B1B6823F024
:10201000070265493B6813430B60634B1B6803F081
:1020200007033A689A4201D00123B8E07B681B6835
:1020300003F00203002B20D07B681B6803F004032D
:10204000002B05D0594B5B68584A43F4E06353605A
:102050007B681B6803F00803002B05D0534B5B68BB
:10206000524A43F460535360504B5B6823F0F002D4
:102070007B689B684D4913434B607B681B6803F08A
:102080000103002B40D07B685B68012B07D1474BD5
:102090001B6803F40033002B15D101237FE07B681C
:1020A0005B68022B07D1414B1B6803F00073002BC8
:1020B00009D1012373E03D4B1B6803F00203002BA1
:1020C00001D101236BE0394B5B6823F003027B688D
:1020D0005B68364913434B60FEF734FCF8600AE056
:1020E000FEF730FC0246FB68D31A41F28832934275
:1020F00001D9032353E02D4B5B6803F00C027B688E
:102100005B689B009A42EBD1274B1B6803F00703E7
:102110003A689A4210D2244B1B6823F007022249E6
:102120003B6813430B60204B1B6803F007033A68BE
:102130009A4201D0012332E07B681B6803F004035C
:10214000002B08D0194B5B6823F4E0627B68DB68E6
:10215000164913434B607B681B6803F00803002B90
:1021600009D0124B5B6823F460527B681B69DB006B
:102170000E4913434B6000F021F802460B4B5B689D
:102180001B0903F00F030A49CB5C22FA03F3094A47
:102190001360094B1B681846FEF792FB0023184694
:1021A0001037BD4680BD00BF002002400010024035
:1021B0004C5D0008000000200400002080B487B0BF
:1021C00000AF0023FB600023BB6000237B61002382
:1021D0007B6000233B611E4B5B68FB60FB6803F088
:1021E0000C03042B02D0082B03D027E0194B3B61D2
:1021F00027E0FB689B0C03F00F03174AD35C7B605E
:10220000FB6803F48033002B10D0114B5B685B0C30
:1022100003F00103114AD35CBB607B680D4A03FBEA
:1022200002F2BB68B2FBF3F37B6104E07B680C4A0B
:1022300002FB03F37B617B693B6102E0054B3B6181
:1022400000BF3B6918461C37BD4680BC704700BFC5
:102250000010024000127A00645D0008745D0008FE
:1022600000093D0080B400AF024B1B681846BD4614
:1022700080BC70470000002080B500AFFFF7F2FF80
:102280000246054B5B681B0A03F007030349CB5C5E
:1022900022FA03F3184680BD001002405C5D00087E
:1022A00080B500AFFFF7DEFF0246054B5B68DB0A37
:1022B00003F007030349CB5C22FA03F3184680BD01
:1022C000001002405C5D000880B485B000AF78600B
:1022D0000A4B1B680A4AA2FB03235B0A7A6802FBCB
:1022E00003F3FB6000BFFB685A1EFA60002BF9D1B4
:1022F00000BF00BF1437BD4680BC704700000020FF
:10230000D34D621080B586B000AF786000233B618A
:102310000023FB607B681B6803F00103002B7DD06A
:102320000023FB754F4BDB6903F08053002B0DD16D
:102330004C4BDB694B4A43F08053D361494BDB691B
:1023400003F08053BB60BB680123FB75464B1B68E1
:1023500003F48073002B18D1434B1B68424A43F4AB
:1023600080731360FEF7EEFA386108E0FEF7EAFAD0
:1023700002463B69D31A642B01D903236DE03A4B23
:102380001B6803F48073002BF0D0364B1B6A03F4F8
:102390004073FB60FB68002B2ED07B685B6803F406
:1023A0004073FA689A4227D02E4B1B6A23F440737D
:1023B000FB602E4B01221A602C4B00221A60294A26
:1023C000FB681362FB6803F00103002B14D0FEF7D7
:1023D000B9FA38610AE0FEF7B5FA02463B69D31A4A
:1023E00041F28832934201D9032336E01D4B1B6A28
:1023F00003F00203002BEED01A4B1B6A23F4407249
:102400007B685B68174913430B62FB7D012B05D189
:10241000144BDB69134A23F08053D3617B681B683C
:1024200003F00203002B08D00E4B5B6823F44042FC
:102430007B689B680B4913434B607B681B6803F008
:102440001003002B08D0074B5B6823F480027B68E5
:10245000DB68044913434B60002318461837BD4618
:1024600080BD00BF001002400070004040044242A6
:1024700080B588B000AF786000237B610023FB61EA
:1024800000233B610023FB600023BB617B68102BB2
:102490000AD07B68102B00F28A807B68012B45D024
:1024A0007B68022B75D082E0464B5B68FB60454B36
:1024B0001B6803F08073002B7BD0FB689B0C03F040
:1024C0000F03414AD35C3B61FB6803F48033002B6C
:1024D00015D03C4B5B685B0C03F001033B4AD35CBB
:1024E0007B61FB6803F48033002B0DD0384A7B6995
:1024F000B2FBF3F23B6902FB03F3FB6104E03B69CF
:10250000344A02FB03F3FB612E4B5B6803F4800348
:10251000B3F5800F02D1FB69BB614AE0FB695B0048
:102520002D4AA2FB03235B08BB6142E0254B1B6ADB
:10253000FB60FB6803F44073B3F5807F08D1FB6850
:1025400003F00203002B03D04FF40043BB611FE0F4
:10255000FB6803F44073B3F5007F09D1194B5B6A44
:1025600003F00203002B03D049F64043BB610FE0A8
:10257000FB6803F44073B3F5407F1CD1114B1B681B
:1025800003F40033002B16D04FF22443BB6112E05A
:1025900011E0FFF785FE02460A4B5B689B0B03F0D8
:1025A000030301335B00B2FBF3F3BB6104E000BF44
:1025B00002E000BF00E000BFBB6918462037BD46FF
:1025C00080BD00BF00100240785D0008885D0008F3
:1025D00000127A0000093D00ABAAAAAA80B582B019
:1025E00000AF78607B68002B01D1012342E07B685B
:1025F00093F84130DBB2002B06D17B68002283F8D0
:1026000040207868FEF7A6F87B68242283F84120F2
:102610007B681B68DA687B681B6822F40052DA600A
:10262000786800F01DF97B681B681A697B681B6875
:1026300022F490421A617B681B685A697B681B68A8
:1026400022F02A025A617B681B68DA687B681B6883
:1026500042F40052DA607B6800225A647B682022D0
:1026600083F841207B68202283F842207B68002287
:102670005A63002318460837BD4680BD80B58AB02E
:1026800002AFF860B9603B601346FB8000237B61BA
:10269000FB6893F84130DBB2202B6DD1BB68002B77
:1026A00002D0FB88002B01D1012366E0FB680022E9
:1026B0005A64FB68212283F84120FEF743F97861D0
:1026C000FB68FA889A84FB68FA88DA84FB689B685E
:1026D000B3F5805F08D1FB681B69002B04D1002390
:1026E000FB61BB68BB6103E0BB68FB610023BB61AE
:1026F0002AE03B6800937B6900228021F86800F0A3
:1027000040F80346002B01D0032336E0FB69002B81
:102710000BD1BB691B881A46FB681B68C2F3080211
:102720005A60BB690233BB6107E0FB691A78FB683A
:102730001B685A60FB690133FB61FB68DB8C9BB251
:10274000013B9AB2FB68DA84FB68DB8C9BB2002BFE
:10275000CFD13B6800937B6900224021F86800F0EC
:1027600010F80346002B01D0032306E0FB6820226B
:1027700083F84120002300E0022318462037BD469D
:1027800080BD80B590B000AFF860B9603B60134683
:10279000FB7150E0BB6CB3F1FF3F4CD0BB6C002B26
:1027A00007D0FEF7CFF802463B68D31ABA6C9A42BC
:1027B00041D2FB681B680C33BB62BB6A53E8003F25
:1027C0007B627B6A23F4D073FB63FB681B680C336A
:1027D000FA6B7A633B63396B7A6B41E80023FB62E7
:1027E000FB6A002BE5D1FB681B6814337B617B69B6
:1027F00053E8003F3B613B6923F00103BB63FB6887
:102800001B681433BA6B3A62FB61F9693A6A41E8B2
:102810000023BB61BB69002BE5D1FB68202283F854
:102820004120FB68202283F84220FB68002283F8C5
:10283000402003230FE0FB681B681A68BB68134045
:10284000BA689A420CBF01230023DBB21A46FB7917
:102850009A429FD0002318464037BD4680BD0000F5
:1028600080B584B000AF78607B681B681B6923F477
:1028700040517B68DA687B681B680A431A617B6891
:102880009A687B681B691A437B685B691343BB606A
:102890007B681B68DB6823F4B05323F00C037A6871
:1028A0001268B9680B43D3607B681B685B6923F4CB
:1028B00040717B689A697B681B680A435A617B6830
:1028C0001B682C4A934203D1FFF7EAFCF86002E050
:1028D000FFF7D2FCF860FA6813469B0013449A0095
:1028E0001A447B685B689B00B2FBF3F3224AA2FBAD
:1028F00003235B091901FA6813469B0013449A00ED
:102900001A447B685B689B00B2FBF3F21A4BA3FB93
:1029100002035B09642000FB03F3D31A1B0132336B
:10292000154AA2FB03235B0903F0F0031944FA687C
:1029300013469B0013449A001A447B685B689B0013
:10294000B2FBF3F20C4BA3FB02035B09642000FB18
:1029500003F3D31A1B013233074AA2FB03235B099B
:1029600003F00F027B681B680A449A6000BF1037AF
:10297000BD4680BD003801401F85EB5180B485B055
:1029800000AFEFF30583BB60BB68002B0FD1EFF303
:1029900010837B607B68002B09D1104B1B68022BD6
:1029A00009D1EFF311833B603B68002B03D06FF03C
:1029B0000503FB600CE0094B1B68002B05D1074B9E
:1029C00001221A600023FB6002E04FF0FF33FB603E
:1029D000FB6818461437BD4680BC704700010020D4
:1029E00080B584B000AFEFF30583BB60BB68002BFC
:1029F0000FD1EFF310837B607B68002B09D1114B63
:102A00001B68022B09D1EFF311833B603B68002B5D
:102A100003D06FF00503FB600EE00A4B1B68012B2F
:102A200007D1084B02221A6001F094FB0023FB60DF
:102A300002E04FF0FF33FB60FB6818461037BD46DD
:102A400080BD00BF0001002080B592B004AFF860E7
:102A5000B9607A6000237B61EFF305837B627B6A58
:102A6000002B40F09480EFF310833B623B6A002B15
:102A700040F08D80484B1B68022B06D1EFF3118389
:102A8000FB61FB69002B40F08280FB68002B7ED04D
:102A900080233B631823FB620023FB7607F11B03B3
:102AA0007B634FF0FF33BB627B68002B45D07B68B4
:102AB0001B68002B02D07B681B687B637B689B696B
:102AC000002B02D07B689B69FB62FB6A002B08D05D
:102AD000FB6A382B05D87B685B6803F00103002B89
:102AE00001D0002354E07B685B69002B03D07B6836
:102AF0005B699B083B637B689B68002B0ED07B68FF
:102B0000DB685B2B0AD97B681B69002B06D07B68CE
:102B10005B69002B02D00123BB6210E07B689B68DD
:102B2000002B0CD17B68DB68002B08D17B681B690C
:102B3000002B04D10023BB6201E00023BB62BB6A0F
:102B4000012B10D17B681B697A689268029201930D
:102B5000FB6A0093BB683A6B796BF86801F05EF929
:102B600003467B6113E0BB6A002B10D13B6B9AB22A
:102B700007F114030193FB6A0093BB68796BF86853
:102B800001F0ABF90346012B01D000237B617B6987
:102B900018463837BD4680BD0001002080B58AB098
:102BA00000AF786000237B62EFF305833B613B69F4
:102BB000002B40F08580EFF31083FB60FB68002B57
:102BC0007ED1424B1B68022B05D1EFF31183BB6012
:102BD000BB68002B74D17B68002B03D07B685B68DB
:102BE0003B6201E000233B623B6A03F00103002BE0
:102BF00002D00123FB6101E00023FB613B6A03F08B
:102C00000803002B5CD14FF0FF33BB617B68002BC6
:102C100015D07B689B68002B06D07B68DB684F2B48
:102C200002D90123BB610CE07B689B68002B08D1B3
:102C30007B68DB68002B04D10023BB6101E000232B
:102C4000BB61BB69012B12D1FB69002B07D07B68EC
:102C50009B681946042000F045FB786216E07B680B
:102C60009B681946012000F03DFB78620EE0BB69CD
:102C7000002B0BD1FB69002B04D0042000F01AFBC1
:102C8000786203E0012000F015FB78627B6A002B7C
:102C90000CD07B68002B03D07B681B687B6101E054
:102CA00000237B617969786A01F05CF87B6A002B0C
:102CB00006D0FB69002B03D07B6A43F001037B62E3
:102CC0007B6A18462837BD4680BD00BF0001002042
:102CD00080B588B000AF786039607B6823F001036D
:102CE000BB617B6803F001037B610023FB61EFF3B1
:102CF00005833B613B69002B0FD1EFF31083FB6031
:102D0000FB68002B09D1204B1B68022B09D1EFF384
:102D10001183BB60BB68002B03D06FF00503FB6120
:102D20002CE0BB69002B03D16FF00303FB6125E0AE
:102D30007B69002B11D03968B86900F023FB03468A
:102D4000012B1BD03B68002B03D06FF00103FB610C
:102D500014E06FF00203FB6110E03968B86900F01D
:102D6000C9FD0346012B09D03B68002B03D06FF04F
:102D70000103FB6102E06FF00203FB61FB6918468F
:102D80002037BD4680BD00BF0001002080B588B05F
:102D900000AF78607B6823F00103BB617B6803F0C0
:102DA00001037B610023FB61EFF305833B613B691A
:102DB000002B0FD1EFF31083FB60FB68002B09D1D0
:102DC000194B1B68022B09D1EFF31183BB60BB6861
:102DD000002B03D06FF00503FB611FE0BB69002BE4
:102DE00003D16FF00303FB6118E07B69002B09D06E
:102DF000B86900F092FA0346012B0FD06FF002037E
:102E0000FB610BE0002300220021B86900F0F2FA18
:102E10000346012B02D06FF00203FB61FB691846E9
:102E20002037BD4680BD00BF0001002080B485B0C2
:102E300000AFF860B9607A60FB68064A1A60BB6848
:102E4000054A1A607B6880221A6000BF1437BD46AD
:102E500080BC7047040100206001002080B485B070
:102E600000AFF860B9607A60FB68074A1A60BB6817
:102E7000064A1A607B684FF480721A6000BF1437EC
:102E8000BD4680BC704700BF60030020BC0300202B
:102E900080B483B000AF78607B6803F108027B6880
:102EA0005A607B684FF0FF329A607B6803F108023A
:102EB0007B68DA607B6803F108027B681A617B68D3
:102EC00000221A6000BF0C37BD4680BC704780B43A
:102ED00083B000AF78607B6800221A6100BF0C37B6
:102EE000BD4680BC704780B485B000AF7860396063
:102EF0007B685B68FB603B68FA685A60FB689A68AD
:102F00003B689A60FB689B683A685A60FB683A685D
:102F10009A603B687A681A617B681B685A1C7B68F8
:102F20001A6000BF1437BD4680BC704780B485B0BE
:102F300000AF786039603B681B68BB60BB68B3F169
:102F4000FF3F03D17B681B69FB600CE07B680833A3
:102F5000FB6002E0FB685B68FB60FB685B681B680A
:102F6000BA689A42F6D2FB685A683B685A603B6876
:102F70005B683A689A603B68FA689A60FB683A68EE
:102F80005A603B687A681A617B681B685A1C7B68C8
:102F90001A6000BF1437BD4680BC704780B485B04E
:102FA00000AF78607B681B69FB607B685B687A6850
:102FB00092689A607B689B687A6852685A60FB687E
:102FC0005B687A689A4203D17B689A68FB685A60AA
:102FD0007B6800221A61FB681B685A1EFB681A6036
:102FE000FB681B6818461437BD4680BC704700005C
:102FF00080B584B000AF786039607B68FB60FB68A7
:10300000002B0BD14FF0500383F31188BFF36F8F68
:10301000BFF34F8FBB6000BF00BFFDE702F0FEFAB9
:10302000FB681A68FB68DB6BF968096C01FB03F34A
:103030001A44FB685A60FB6800229A63FB681A68AE
:10304000FB689A60FB681A68FB68DB6B013BF968F8
:10305000096C01FB03F31A44FB68DA60FB68FF228A
:1030600083F84420FB68FF2283F845203B68002B4F
:1030700014D1FB681B69002B1AD0FB68103318466B
:1030800001F0FAFA0346002B12D00D4B4FF080529C
:103090001A60BFF34F8FBFF36F8F09E0FB681033E7
:1030A0001846FFF7F5FEFB6824331846FFF7F0FEDD
:1030B00002F0E4FA012318461037BD4680BD00BF78
:1030C00004ED00E080B58EB002AFF860B9607A60C0
:1030D0003B60FB68002B0BD14FF0500383F311884A
:1030E000BFF36F8FBFF34F8FBB6200BF00BFFDE721
:1030F0003B68002B0BD14FF0500383F31188BFF3D3
:103100006F8FBFF34F8F7B6200BF00BFFDE77B680F
:10311000002B02D0BB68002B01D0012300E000236C
:10312000002B0BD14FF0500383F31188BFF36F8F47
:10313000BFF34F8F3B6200BF00BFFDE77B68002BF2
:1031400002D1BB68002B01D1012300E00023002B3A
:103150000BD14FF0500383F31188BFF36F8FBFF390
:103160004F8FFB6100BF00BFFDE750237B617B6990
:10317000502B0BD04FF0500383F31188BFF36F8FA8
:10318000BFF34F8FBB6100BF00BFFDE73B68FB6231
:10319000FB6A002B0DD0FB6A012283F8462097F8CA
:1031A0003820FB6A009313467A68B968F86800F023
:1031B00044F8FB6A18463037BD4680BD80B58AB0FA
:1031C00002AFF860B9601346FB71FB68002B0BD1AE
:1031D0004FF0500383F31188BFF36F8FBFF34F8F0E
:1031E0003B6100BF00BFFDE7BB68002B02D100239D
:1031F000FB6104E0FB68BA6802FB03F3FB61FB6957
:103200005033184602F00CFBB861BB69002B0FD09D
:10321000BB6950337B61BB69002283F84620FA7991
:10322000BB69009313467A69B968F86800F005F83D
:10323000BB6918462037BD4680BD80B584B000AF5D
:10324000F860B9607A60FB70BB68002B03D1BB6982
:10325000BA691A6002E0BB697A681A60BB69FA68E9
:10326000DA63BB69BA681A640121B869FFF7C0FE66
:10327000BB69FA7883F84C2000BF1037BD4680BD8B
:1032800080B582B000AF78607B68002B0ED07B6881
:1032900000225A607B6800221A607B680022DA6094
:1032A000002300220021786800F0A4F800BF08374E
:1032B000BD4680BD80B586B000AF0346FB710123DB
:1032C0007B6100233B61FB791A4639697869FFF716
:1032D00075FFF860F868FFF7D3FFFB6818461837EA
:1032E000BD4680BD80B588B002AF03463960FB7132
:1032F00001237B6100233B61FB7900933B68002243
:1033000039697869FFF7DEFEF860F868FFF7B8FF03
:10331000FB6818461837BD4680BD90B587B000AF32
:1033200078607B683B613B69002B0BD14FF0500309
:1033300083F31188BFF36F8FBFF34F8FFB6000BF24
:1033400000BFFDE73B695C6801F05AFB03469C4205
:1033500011D13B69DB685A1E3B69DA603B69DB6867
:10336000002B05D1002300220021386900F042F82B
:1033700001237B6101E000237B617B6918461C37D8
:10338000BD4690BD90B587B000AF786039607B686E
:103390003B613B69002B0BD14FF0500383F3118845
:1033A000BFF36F8FBFF34F8FFB6000BF00BFFDE720
:1033B0003B695C6801F024FB03469C4207D13B69F2
:1033C000DB685A1C3B69DA6001237B610CE03968D9
:1033D000386900F08FFA78617B69002B04D03B6973
:1033E000DB685A1C3B69DA607B6918461C37BD46AE
:1033F00090BD000080B58EB000AFF860B9607A6013
:103400003B6000237B63FB683B633B6B002B0BD172
:103410004FF0500383F31188BFF36F8FBFF34F8FCB
:10342000BB6200BF00BFFDE7BB68002B03D13B6B55
:103430001B6C002B01D1012300E00023002B0BD1DA
:103440004FF0500383F31188BFF36F8FBFF34F8F9B
:103450007B6200BF00BFFDE73B68022B03D13B6BE3
:10346000DB6B012B01D1012300E00023002B0BD1EA
:103470004FF0500383F31188BFF36F8FBFF34F8F6B
:103480003B6200BF00BFFDE701F0C8FA0346002B16
:1034900002D17B68002B01D1012300E00023002B27
:1034A0000BD14FF0500383F31188BFF36F8FBFF33D
:1034B0004F8FFB6100BF00BFFDE702F0AFF83B6B31
:1034C0009A6B3B6BDB6B9A4202D33B68022B29D190
:1034D0003A68B968386B00F034FBF8623B6B5B6AA2
:1034E000002B10D03B6B2433184601F0C5F803467F
:1034F000002B13D03F4B4FF080521A60BFF34F8F19
:10350000BFF36F8F0AE0FB6A002B07D0394B4FF0F7
:1035100080521A60BFF34F8FBFF36F8F02F0AEF887
:10352000012363E07B68002B03D102F0A7F800239E
:103530005CE07B6B002B06D107F11403184601F009
:10354000FFF801237B6302F099F800F06BFE02F0B4
:1035500065F83B6B93F844305BB2B3F1FF3F03D1A6
:103560003B6B002283F844203B6B93F845305BB201
:10357000B3F1FF3F03D13B6B002283F8452002F0FB
:103580007DF83A1D07F114031146184601F0EEF8D4
:103590000346002B24D1386B00F0CBFB0346002BF5
:1035A00018D03B6B10337A681146184601F012F8B8
:1035B000386B00F056FB00F043FE0346002B7FF40F
:1035C0007CAF0C4B4FF080521A60BFF34F8FBFF3AC
:1035D0006F8F72E7386B00F044FB00F031FE6CE750
:1035E000386B00F03EFB00F02BFE00231846383706
:1035F000BD4680BD04ED00E080B58EB000AFF86040
:10360000B9607A603B60FB683B633B6B002B0BD17E
:103610004FF0500383F31188BFF36F8FBFF34F8FC9
:103620007B6200BF00BFFDE7BB68002B03D13B6B93
:103630001B6C002B01D1012300E00023002B0BD1D8
:103640004FF0500383F31188BFF36F8FBFF34F8F99
:103650003B6200BF00BFFDE73B68022B03D13B6B21
:10366000DB6B012B01D1012300E00023002B0BD1E8
:103670004FF0500383F31188BFF36F8FBFF34F8F69
:10368000FB6100BF00BFFDE702F08AF8EFF3118293
:103690004FF0500383F31188BFF36F8FBFF34F8F49
:1036A000BA617B61BB69FB623B6B9A6B3B6BDB6B0B
:1036B0009A4202D33B68022B2CD13B6B93F84530E6
:1036C00087F82B303A68B968386B00F03AFA97F906
:1036D0002B30B3F1FF3F12D13B6B5B6A002B16D04E
:1036E0003B6B2433184600F0C7FF0346002B0ED077
:1036F0007B68002B0BD07B6801221A6007E097F8EB
:103700002B300133DBB25AB23B6B83F845200123E7
:103710007B6301E000237B63FB6A3B613B6983F3CE
:10372000118800BF7B6B18463837BD4680BD00004E
:1037300080B58CB000AFF860B9607A600023FB629E
:10374000FB68BB62BB6A002B0BD14FF0500383F3C5
:103750001188BFF36F8FBFF34F8F3B6200BF00BF75
:10376000FDE7BB68002B03D1BB6A1B6C002B01D1AA
:10377000012300E00023002B0BD14FF0500383F313
:103780001188BFF36F8FBFF34F8FFB6100BF00BF86
:10379000FDE701F043F90346002B02D17B68002BC3
:1037A00001D1012300E00023002B0BD14FF0500387
:1037B00083F31188BFF36F8FBFF34F8FBB6100BFDF
:1037C00000BFFDE701F02AFFBB6A9B6B7B627B6A4F
:1037D000002B1FD0B968B86A00F01DFA7B6A5A1E28
:1037E000BB6A9A63BB6A1B69002B0FD0BB6A10339C
:1037F000184600F041FF0346002B07D03C4B4FF02A
:1038000080521A60BFF34F8FBFF36F8F01F036FF06
:10381000012369E07B68002B03D101F02FFF002317
:1038200062E0FB6A002B06D107F11003184600F096
:1038300087FF0123FB6201F021FF00F0F3FC01F0A0
:10384000EDFEBB6A93F844305BB2B3F1FF3F03D1A6
:10385000BB6A002283F84420BB6A93F845305BB210
:10386000B3F1FF3F03D1BB6A002283F8452001F08A
:1038700005FF3A1D07F110031146184600F076FFC8
:103880000346002B23D1B86A00F03DFA0346002B13
:1038900017D0BB6A24337A681146184600F09AFEA6
:1038A000B86A00F0DEF900F0CBFC0346002B89D1AA
:1038B0000F4B4FF080521A60BFF34F8FBFF36F8FE3
:1038C00080E7B86A00F0CDF900F0BAFC7AE7B86A90
:1038D00000F0C7F900F0B4FCB86A00F014FA03462F
:1038E000002B3FF46FAF002318463037BD4680BD34
:1038F00004ED00E080B58EB000AF78603960002341
:103900007B637B68FB6200233B63FB6A002B0BD16C
:103910004FF0500383F31188BFF36F8FBFF34F8FC6
:103920003B6200BF00BFFDE7FB6A1B6C002B0BD0A6
:103930004FF0500383F31188BFF36F8FBFF34F8FA6
:10394000FB6100BF00BFFDE701F068F80346002BF4
:1039500002D13B68002B01D1012300E00023002BA2
:103960000BD14FF0500383F31188BFF36F8FBFF378
:103970004F8FBB6100BF00BFFDE701F04FFEFB6A48
:103980009B6BBB62BB6A002B24D0BB6A5A1EFB6ACE
:103990009A63FB6A1B68002B04D101F0C3F902464D
:1039A000FB6A5A60FB6A1B69002B0FD0FB6A10335D
:1039B000184600F061FE0346002B07D0544B4FF031
:1039C00080521A60BFF34F8FBFF36F8F01F056FE26
:1039D000012398E03B68002B12D13B6B002B0BD0EE
:1039E0004FF0500383F31188BFF36F8FBFF34F8FF6
:1039F0007B6100BF00BFFDE701F040FE002382E0D5
:103A00007B6B002B06D107F10C03184600F098FEE3
:103A100001237B6301F032FE00F004FC01F0FEFDA7
:103A2000FB6A93F844305BB2B3F1FF3F03D1FB6A0A
:103A3000002283F84420FB6A93F845305BB2B3F16F
:103A4000FF3F03D1FB6A002283F8452001F016FEF8
:103A50003A4607F10C031146184600F087FE03466C
:103A6000002B32D1F86A00F04EF90346002B26D025
:103A7000FB6A1B68002B09D101F0D0FDFB6A5B6873
:103A8000184600F0E9FF386301F0F8FDFB6A2433C3
:103A90003A681146184600F09DFDF86A00F0E1F81A
:103AA00000F0CEFB0346002B7FF467AF184B4FF0BE
:103AB00080521A60BFF34F8FBFF36F8F5DE7F86AD4
:103AC00000F0CFF800F0BCFB57E7F86A00F0C9F847
:103AD00000F0B6FBF86A00F016F90346002B3FF43D
:103AE0004CAF3B6B002B0DD001F098FDF86A00F055
:103AF00011F87862FB6A5B68796A184601F08AF807
:103B000001F0BCFD002318463837BD4680BD00BF1C
:103B100004ED00E080B485B000AF78607B685B6A3C
:103B2000002B06D07B681B6B1B68C3F13803FB605E
:103B300001E00023FB60FB6818461437BD4680BCDB
:103B4000704780B586B000AFF860B9607A60002336
:103B50007B61FB689B6B3B61FB681B6C002B0DD191
:103B6000FB681B68002B4DD1FB685B68184600F0B2
:103B7000E1FF7861FB6800225A6043E07B68002B1C
:103B800019D1FB689868FB681B6C1A46B96802F08B
:103B900051F8FB689A68FB681B6C1A44FB689A60D2
:103BA000FB689A68FB685B689A422BD3FB681A68CB
:103BB000FB689A6026E0FB68D868FB681B6C1A46B5
:103BC000B96802F037F8FB68DA68FB681B6C5B4287
:103BD0001A44FB68DA60FB68DA68FB681B689A4283
:103BE00007D2FB685A68FB681B6C5B421A44FB688F
:103BF000DA607B68022B05D13B69002B02D03B6960
:103C0000013B3B613B695A1CFB689A637B69184620
:103C10001837BD4680BD80B582B000AF786039608E
:103C20007B681B6C002B18D07B68DA687B681B6C88
:103C30001A447B68DA607B68DA687B685B689A4262
:103C400003D37B681A687B68DA607B68D9687B6815
:103C50001B6C1A46386801F0EDFF00BF0837BD46FF
:103C600080BD80B584B000AF786001F0D7FC7B6880
:103C700093F84530FB7311E07B685B6A002B12D030
:103C80007B682433184600F0F7FC0346002B01D074
:103C900000F0D0FDFB7B013BDBB2FB7397F90F30EB
:103CA000002BE9DC00E000BF7B68FF2283F84520A1
:103CB00001F0E4FC01F0B2FC7B6893F84430BB7384
:103CC00011E07B681B69002B12D07B68103318460B
:103CD00000F0D2FC0346002B01D000F0ABFDBB7B13
:103CE000013BDBB2BB7397F90E30002BE9DC00E03F
:103CF00000BF7B68FF2283F8442001F0BFFC00BFB7
:103D00001037BD4680BD80B584B000AF786001F04B
:103D100085FC7B689B6B002B02D10123FB6001E0DB
:103D20000023FB6001F0AAFCFB6818461037BD4673
:103D300080BD80B584B000AF786001F06FFC7B6817
:103D40009A6B7B68DB6B9A4202D10123FB6001E036
:103D50000023FB6001F092FCFB6818461037BD465B
:103D600080BD000080B485B000AF7860396000236A
:103D7000FB6014E00E4AFB6852F83330002B0BD185
:103D80000B49FB683A6841F83320094AFB68DB00BD
:103D900013447A685A6006E0FB680133FB60FB68F5
:103DA000072BE7D900BF00BF1437BD4680BC704762
:103DB000BC07002080B586B000AFF860B9607A60BB
:103DC000FB687B6101F02AFC7B6993F844305BB2AD
:103DD000B3F1FF3F03D17B69002283F844207B6964
:103DE00093F845305BB2B3F1FF3F03D17B6900220A
:103DF00083F8452001F042FC7B699B6B002B06D1C8
:103E00007B6924337A68B968184600F009FC786940
:103E1000FFF727FF00BF1837BD4680BD80B58EB0C5
:103E200004AFF860B9607A603B607B6B002B0BD10C
:103E30004FF0500383F31188BFF36F8FBFF34F8FA1
:103E40003B6200BF00BFFDE7BB6B002B0BD14FF007
:103E5000500383F31188BFF36F8FBFF34F8FFB6164
:103E600000BF00BFFDE75C233B613B695C2B0BD0CF
:103E70004FF0500383F31188BFF36F8FBFF34F8F61
:103E8000BB6100BF00BFFDE7BB6B002B1ED07B6B8F
:103E9000002B1BD0BB6B7B627B6A7A6B1A637B6ADD
:103EA000022283F85920002303937B6A029307F1CF
:103EB000140301933B6B00933B687A68B968F86818
:103EC00000F050F8786A00F0D5F801E000237B613B
:103ED0007B6918462837BD4680BD80B58CB004AFDD
:103EE000F860B9603B601346FB80FB889B00184676
:103EF00001F096FC78617B69002B0ED05C2001F00C
:103F00008FFCF861FB69002B03D0FB697A691A63A7
:103F100005E0786901F04CFD01E00023FB61FB69DD
:103F2000002B17D0FB69002283F85920FA88002360
:103F30000393FB690293FB6A0193BB6A00933B689E
:103F4000B968F86800F00EF8F86900F093F80123FA
:103F5000BB6102E04FF0FF33BB61BB6918462037FD
:103F6000BD4680BD80B588B000AFF860B9607A60AA
:103F70003B603B6B186B7B689B001A46A52101F0E8
:103F80002DFE3B6B1A6B7B6803F18043013B9B006A
:103F90001344BB61BB6923F00703BB61BB6903F03A
:103FA0000703002B0BD04FF0500383F31188BFF3AE
:103FB0006F8FBFF34F8F7B6100BF00BFFDE7002312
:103FC000FB6112E0BA68FB69134419783A6BFB692C
:103FD000134434330A461A70BA68FB6913441B78D9
:103FE000002B06D0FB690133FB61FB690F2BE9D97C
:103FF00000E000BF3B6B002283F84320BB6A372BF5
:1040000001D93723BB623B6BBA6ADA623B6BBA6A8F
:10401000DA643B6B00221A653B6B04331846FEF7EB
:1040200056FF3B6B18331846FEF751FF3B6B3A6B5C
:104030001A61BB6AC3F138023B6B9A613B6B3A6B06
:104040005A623B6B00225A653B6B002283F8582072
:104050003A68F968B86901F0EDF902463B6B1A60FD
:10406000FB6A002B02D0FB6A3A6B1A6000BF203754
:10407000BD4680BD80B582B000AF786001F0CEFA59
:104080002D4B1B6801332C4A13602C4B1B68002BF3
:1040900009D12A4A7B681360274B1B68012B10D17A
:1040A00000F0ECFB0DE0264B1B68002B09D1234BE5
:1040B0001B68DA6A7B68DB6A9A4202D81F4A7B680F
:1040C0001360204B1B6801331E4A13601D4B1A6896
:1040D0007B685A647B68DA6A1B4B1B689A4203D977
:1040E0007B68DB6A184A13607B68DA6A13469B00B8
:1040F00013449B00154A1A447B6804331946104642
:10410000FEF7F1FE01F0BAFA0D4B1B68002B0ED042
:104110000A4B1B68DA6A7B68DB6A9A4207D20C4B4F
:104120004FF080521A60BFF34F8FBFF36F8F00BF05
:104130000837BD4680BD00BFD00C0020FC07002022
:10414000DC0C0020EC0C0020D80C00200008002023
:1041500004ED00E080B58AB004AF0023BB6000230B
:104160007B603A46391D07F108031846FEF75EFEEC
:1041700039687B68BA680292019300230093002398
:104180000A4622492248FFF749FE0346214A1360A6
:10419000204B1B68002B02D001237B6101E0002330
:1041A0007B617B69012B02D100F024FE78617B6981
:1041B000012B16D14FF0500383F31188BFF36F8F9B
:1041C000BFF34F8F3B6100BF134B4FF0FF321A60BC
:1041D000124B01221A60124B00221A6001F0ACF956
:1041E0000FE07B69B3F1FF3F0BD14FF0500383F336
:1041F0001188BFF36F8FBFF34F8FFB6000BF00BF0D
:10420000FDE700BF1837BD4680BD00BFB85C0008A1
:104210004D480008F40C0020F00C0020DC0C0020BD
:10422000D40C002080B400AF044B1B680133034A58
:10423000136000BFBD4680BC704700BFF80C002073
:1042400080B584B000AF0023FB600023BB60424B0D
:104250001B68002B0BD14FF0500383F31188BFF381
:104260006F8FBFF34F8F3B6000BF00BFFDE701F0D2
:10427000D5F9394B1B68013B374A1360364B1B6835
:10428000002B62D1354B1B68002B5ED02FE0344BE6
:10429000DB68DB68FB60FB6818331846FEF77EFEC0
:1042A000FB6804331846FEF779FEFB68DA6A2D4B8B
:1042B0001B689A4203D9FB68DB6A2A4A1360FB68D1
:1042C000DA6A13469B0013449B00274A1A44FB6892
:1042D000043319461046FEF706FEFB68DA6A234BE4
:1042E0001B68DB6A9A4202D3214B01221A601C4BE5
:1042F0001B68002BCBD1FB68002B01D000F05CFBCE
:104300001C4B1B687B607B68002B10D000F044F8CE
:104310000346002B02D0164B01221A607B68013B3A
:104320007B607B68002BF1D1124B00221A60104B8E
:104330001B68002B09D00123BB600F4B4FF080524C
:104340001A60BFF34F8FBFF36F8F01F097F9BB680F
:1043500018461037BD4680BDF80C0020D00C002058
:10436000900C0020D80C002000080020FC07002042
:10437000E40C0020E00C002004ED00E080B483B0E9
:1043800000AF044B1B687B607B6818460C37BD464A
:1043900080BC7047D40C002080B586B000AF0023ED
:1043A0007B61524B1B68002B40F08F80504B1B6889
:1043B00001333B614E4A3B6913603B69002B21D1BD
:1043C0004C4B1B681B68002B0BD04FF0500383F342
:1043D0001188BFF36F8FBFF34F8F3B6000BF00BFEB
:1043E000FDE7444B1B68FB60434B1B68414A13606D
:1043F000414AFB681360414B1B6801333F4A13601D
:1044000000F0DAFA3E4B1B683A699A424ED3394BB8
:104410001B681B68002B01D1012300E00023002B47
:1044200004D0374B4FF0FF321A603FE0314B1B682E
:10443000DB68DB68BB60BB685B687B603A697B6894
:104440009A4203D22E4A7B6813602FE0BB68043384
:104450001846FEF7A3FDBB689B6A002B04D0BB681F
:1044600018331846FEF79AFDBB68DA6A254B1B68BD
:104470009A4203D9BB68DB6A224A1360BB68DA6AD6
:1044800013469B0013449B001F4A1A44BB68043325
:1044900019461046FEF727FDBB68DA6A1B4B1B68FE
:1044A000DB6A9A42B3D301237B61B0E7174B1B68E9
:1044B000DA6A154913469B0013449B000B441B68A2
:1044C000012B07D901237B6104E0114B1B680133E9
:1044D0000F4A13600F4B1B68002B01D001237B6137
:1044E0007B6918461837BD4680BD00BFF80C002018
:1044F000D40C0020880C00208C0C0020E80C00203C
:10450000F00C0020D80C002000080020FC07002040
:10451000E00C0020E40C002080B485B000AF284BF4
:104520001B68002B03D0274B01221A6042E0254B69
:1045300000221A60244B1B68FB6011E0FB68002B13
:104540000BD14FF0500383F31188BFF36F8FBFF38C
:104550004F8F7B6000BF00BFFDE7FB68013BFB6046
:104560001A49FA6813469B0013449B000B441B68CE
:10457000002BE3D0FA6813469B0013449B00134AB8
:104580001344BB60BB685B685A68BB685A60BB6811
:104590005A68BB6808339A4204D1BB685B685A68A2
:1045A000BB685A60BB685B68DB68094A1360064AEF
:1045B000FB68136000BF1437BD4680BC704700BF66
:1045C000F80C0020E40C0020D80C0020000800208B
:1045D000FC07002080B584B000AF786039607B684C
:1045E000002B0BD14FF0500383F31188BFF36F8F73
:1045F000BFF34F8FFB6000BF00BFFDE7074B1B6899
:10460000183319467868FEF791FC0121386800F0EC
:104610009DFB00BF1037BD4680BD00BFFC070020DA
:1046200080B586B000AFF860B9607A60FB68002B97
:104630000BD14FF0500383F31188BFF36F8FBFF39B
:104640004F8F7B6100BF00BFFDE70A4B1B6818332B
:104650001946F868FEF747FC7B68002B02D04FF044
:10466000FF33BB607968B86800F070FB00BF183793
:10467000BD4680BDFC07002080B586B000AF7860E5
:104680007B68DB68DB683B613B69002B0BD14FF03B
:10469000500383F31188BFF36F8FBFF34F8FFB601D
:1046A00000BF00BFFDE73B6918331846FEF776FCF4
:1046B0001D4B1B68002B1DD13B6904331846FEF7C8
:1046C0006DFC3B69DA6A194B1B689A4203D93B6956
:1046D000DB6A164A13603B69DA6A13469B0013448F
:1046E0009B00134A1A443B69043319461046FEF7EF
:1046F000FAFB05E03B69183319460E48FEF7F3FB59
:104700003B69DA6A0C4B1B68DB6A9A4205D90123C4
:104710007B610A4B01221A6001E000237B617B6907
:1047200018461837BD4680BDF80C0020D80C002074
:1047300000080020900C0020FC070020E40C002062
:1047400080B483B000AF7860064B1A687B681A604B
:10475000054B1A687B685A6000BF0C37BD4680BCA9
:10476000704700BFE80C0020D40C002080B588B052
:1047700000AF786039607B68002B0BD14FF050039D
:1047800083F31188BFF36F8FBFF34F8F3B6100BF7F
:1047900000BFFDE73B68002B0BD14FF0500383F3C4
:1047A0001188BFF36F8FBFF34F8FFB6000BF00BF57
:1047B000FDE700F033FF1D4B1B68BB617B685B6846
:1047C000BA69D31A7B613B681B68B3F1FF3F02D122
:1047D0000023FB6123E07B681A68154B1B689A4233
:1047E00007D07B685B68BA699A4202D30123FB61F8
:1047F00015E03B681B687A699A420BD23B681A68DD
:104800007B69D21A3B681A607868FFF799FF00232A
:10481000FB6104E03B6800221A600123FB6100F0A9
:104820002DFFFB6918462037BD4680BDD40C002003
:10483000E80C002080B400AF034B01221A6000BFD7
:10484000BD4680BC704700BFE40C002080B582B03C
:1048500000AF786000F052F8064B1B68012BF9D9C5
:10486000054B4FF080521A60BFF34F8FBFF36F8F2D
:10487000F0E700BF0008002004ED00E080B582B042
:1048800000AF00237B600CE07A6813469B00134462
:104890009B00124A13441846FEF7FAFA7B6801336C
:1048A0007B607B68372BEFD90D48FEF7F1FA0D4896
:1048B000FEF7EEFA0C48FEF7EBFA0C48FEF7E8FAC2
:1048C0000B48FEF7E5FA0B4B054A1A600A4B054AFE
:1048D0001A6000BF0837BD4680BD00BF0008002039
:1048E000600C0020740C0020900C0020A40C002010
:1048F000BC0C0020880C00208C0C002080B582B0FD
:1049000000AF19E000F08AFE104BDB68DB687B60CB
:104910007B6804331846FEF741FB0D4B1B68013BD7
:104920000B4A13600B4B1B68013B0A4A136000F0F3
:10493000A5FE786800F010F8064B1B68002BE1D14B
:1049400000BF00BF0837BD4680BD00BFA40C0020DB
:10495000D00C0020B80C002080B584B000AF786087
:104960007B6893F85930002B08D17B681B6B184685
:1049700001F01EF8786801F01BF819E07B6893F8E5
:104980005930012B03D1786801F012F810E07B68F0
:1049900093F85930022B0BD04FF0500383F311885A
:1049A000BFF36F8FBFF34F8FFB6000BF00BFFDE70A
:1049B00000BF1037BD4680BD80B483B000AF0E4B42
:1049C0001B681B68002B01D1012300E00023002B92
:1049D00004D00A4B4FF0FF321A6008E0064B1B6808
:1049E000DB68DB687B607B685B68044A136000BF40
:1049F0000C37BD4680BC7047880C0020F00C0020AE
:104A000080B483B000AF044B1B687B607B681846A2
:104A10000C37BD4680BC7047FC07002080B483B0D3
:104A200000AF0B4B1B68002B02D101237B6008E019
:104A3000084B1B68002B02D102237B6001E000239E
:104A40007B607B6818460C37BD4680BC704700BF52
:104A5000DC0C0020F80C002080B584B000AF78603A
:104A60007B68BB600023FB607B68002B56D0BB6873
:104A7000DA6A2D4B1B68DB6A9A4246D2BB689B6997
:104A8000002B06DB284B1B68DB6AC3F13802BB68CE
:104A90009A61BB685969BB68DA6A13469B00134484
:104AA0009B00224A1344994201D1012300E00023D4
:104AB000002B22D0BB6804331846FEF76FFA1A4B5E
:104AC0001B68DA6ABB68DA62BB68DA6A184B1B6873
:104AD0009A4203D9BB68DB6A154A1360BB68DA6A7D
:104AE00013469B0013449B00104A1A44BB680433CE
:104AF00019461046FEF7F7F904E00B4B1B68DA6A1B
:104B0000BB68DA620123FB6008E0BB68DA6C064B25
:104B10001B68DB6A9A4201D20123FB60FB681846DE
:104B20001037BD4680BD00BFFC07002000080020F4
:104B3000D80C002080B586B000AF78607B683B6100
:104B400000237B617B68002B58D02F4B1B683A6990
:104B50009A420BD04FF0500383F31188BFF36F8F4D
:104B6000BFF34F8FFB6000BF00BFFDE73B691B6DCC
:104B7000002B0BD14FF0500383F31188BFF36F8FDD
:104B8000BFF34F8FBB6000BF00BFFDE73B691B6DEC
:104B90005A1E3B691A653B69DA6A3B69DB6C9A42CB
:104BA0002CD03B691B6D002B28D13B690433184680
:104BB000FEF7F4F93B69DA6C3B69DA623B69DB6A60
:104BC000C3F138023B699A613B69DA6A0F4B1B6893
:104BD0009A4203D93B69DB6A0C4A13603B69DA6A83
:104BE00013469B0013449B00094A1A443B69043353
:104BF00019461046FEF777F901237B617B69184659
:104C00001837BD4680BD00BFFC070020D80C00202F
:104C10000008002080B588B000AF786039607B68FC
:104C2000BB6101237B617B68002B71D0BB691B6D6D
:104C3000002B0BD14FF0500383F31188BFF36F8F1C
:104C4000BFF34F8FFB6000BF00BFFDE7BB69DB6CAC
:104C50003A689A4202D93B68FB6102E0BB69DB6CAF
:104C6000FB61BB69DB6AFA699A4251D0BB691B6D73
:104C70007A699A424CD1284B1B68BA699A420BD187
:104C80004FF0500383F31188BFF36F8FBFF34F8F43
:104C9000BB6000BF00BFFDE7BB69DB6A3B61BB696E
:104CA000FA69DA62BB699B69002B04DBFB69C3F11B
:104CB0003802BB699A61BB6959693A6913469B001E
:104CC00013449B00154A1344994201D1012300E08B
:104CD0000023002B1CD0BB6904331846FEF75EF995
:104CE000BB69DA6A0E4B1B689A4203D9BB69DB6A5F
:104CF0000B4A1360BB69DA6A13469B0013449B009E
:104D0000064A1A44BB69043319461046FEF7EBF80D
:104D100000BF2037BD4680BDFC07002000080020F2
:104D2000D80C002080B400AF074B1B68002B04D0C8
:104D3000054B1B681A6D01321A65034B1B68184638
:104D4000BD4680BC704700BFFC07002080B584B022
:104D500000AF78603960214B1B68FB60204B1B68FB
:104D600004331846FEF71AF97B68B3F1FF3F0AD106
:104D70003B68002B07D01A4B1B68043319461948AF
:104D8000FEF7B1F826E0FA687B681344BB60144B69
:104D90001B68BA685A60BA68FB689A4209D2124B1B
:104DA0001A680F4B1B68043319461046FEF7BEF80D
:104DB00010E00E4B1A680A4B1B6804331946104664
:104DC000FEF7B4F80A4B1B68BA689A4202D2084A46
:104DD000BB68136000BF1037BD4680BDD40C0020F7
:104DE000FC070020BC0C00208C0C0020880C00204C
:104DF000F00C002080B58AB004AF00237B6100F086
:104E0000D9FA1D4B1B68002B21D00023FB60002327
:104E1000BB603A1D07F1080107F10C031846FEF7C5
:104E20001DF87968BB68FA68029201930223009327
:104E300000230A4611491248FEF7F0FF0346114AC3
:104E40001360104B1B68002B01D001237B617B6931
:104E5000002B0BD14FF0500383F31188BFF36F8FFA
:104E6000BFF34F8F3B6100BF00BFFDE77B69184672
:104E70001837BD4680BD00BF2C0D0020C05C000867
:104E8000A94F0008300D002080B58AB000AFF8604F
:104E9000B9607A603B6000237B62FB68002B0BD11A
:104EA0004FF0500383F31188BFF36F8FBFF34F8F21
:104EB0003B6200BF00BFFDE7194B1B68002B2AD0E7
:104EC000BB683B617B687B61FB68BB61BB68052B92
:104ED00018DCFFF7A3FD0346022B09D1104B18681D
:104EE00007F1100100233A6BFEF784FA786212E0B2
:104EF0000B4B186807F1100100230022FEF77AFA25
:104F0000786208E0064B186807F1100100233A6840
:104F1000FEF772FB78627B6A18462837BD4680BD73
:104F20002C0D002080B588B002AF786039601D4B31
:104F30001B68DB68DB687B617B6904331846FEF71E
:104F40002DF87B69DB69012B23D17B699A697B682A
:104F5000D1187B683A68786900F0CCF80346002BDA
:104F600017D00023009300237A6800217869FFF7A7
:104F70008BFF38613B69002B0BD14FF0500383F35B
:104F80001188BFF36F8FBFF34F8FFB6000BF00BF6F
:104F9000FDE77B695B6A7869984700BF1837BD46B3
:104FA00080BD00BF240D002080B584B000AF7860C4
:104FB00007F10803184600F059F8F860BB68194675
:104FC000F86800F005F800F0D7F800BFF0E700003F
:104FD00080B584B000AF78603960FFF723F907F13E
:104FE0000803184600F066F8F860BB68002B30D163
:104FF0003B68002B0AD17A68FB689A4206D8FFF713
:105000001FF9F9687868FFF78DFF24E03B68002BF3
:1050100008D0134B1B681B68002B0CBF0123002317
:10502000DBB23B600F4B18687A68FB68D31A3A68AA
:105030001946FEF7BFFEFFF703F90346002B0AD11E
:10504000094B4FF080521A60BFF34F8FBFF36F8F41
:1050500001E0FFF7F5F800BF1037BD4680BD00BF87
:10506000280D00202C0D002004ED00E080B485B058
:1050700000AF78600E4B1B681B68002B0CBF012330
:105080000023DBB21A467B681A607B681B68002B22
:1050900005D1074B1B68DB681B68FB6001E0002340
:1050A000FB60FB6818461437BD4680BC704700BFE4
:1050B000240D002080B584B000AF7860FFF75EF962
:1050C000F8600B4B1B68FA689A4205D200F010F9A1
:1050D0007B6801221A6002E07B6800221A60044AA1
:1050E000FB681360FB6818461037BD4680BD00BFE3
:1050F000340D002080B586B000AFF860B9607A60EA
:105100003B6000237B61FB68BA685A60FB68FA6801
:105110001A61BA687B689A4212D87A683B68D21AD8
:10512000FB689B699A4202D301237B611BE0104B11
:105130001A68FB68043319461046FDF7F7FE12E0C3
:105140007A683B689A4206D2BA683B689A4202D3B0
:1051500001237B6107E0074B1A68FB68043319469B
:105160001046FDF7E3FE7B6918461837BD4680BD43
:10517000280D0020240D002080B58EB002AFA5E0E0
:105180007B68002B19DA3B1D0433FB62FB6A002BA2
:105190000BD14FF0500383F31188BFF36F8FBFF330
:1051A0004F8FFB6100BF00BFFDE7FB6A1B68FA6A17
:1051B0005068FA6A9268114698477B68002BC0F2E3
:1051C0008580FB68BB62BB6A5B69002B04D0BB6A4D
:1051D00004331846FDF7E2FE3B461846FFF76AFF28
:1051E00078627B68092B6CD801A252F823F000BFCB
:1051F000195200081952000819520008C352000839
:1052000077520008B15200081952000819520008DC
:10521000C352000877520008BA68BB6A9B69D1186C
:10522000BB687A6AB86AFFF765FF0346002B4AD06D
:10523000BB6A5B6AB86A9847BB6ADB69012B42D1DB
:10524000BA68BB6A9B691A440023009300230021BB
:10525000B86AFFF719FE38623B6A002B33D14FF072
:10526000500383F31188BFF36F8FBFF34F8FBB6180
:1052700000BF00BFFDE7BA68BB6A9A61BB6A9B6961
:10528000002B0BD14FF0500383F31188BFF36F8FC6
:10529000BFF34F8F7B6100BF00BFFDE7BB6A9A6918
:1052A0007B6AD1187B6A7A6AB86AFFF723FF0DE040
:1052B000BB6A93F82C30002B07D1B86A00F078FB5A
:1052C00003E000BF02E000BF00E000BF074B1B6827
:1052D000391D00221846FEF72BFA0346002B7FF4F7
:1052E0004FAF00BF00BF3037BD4680BD2C0D002042
:1052F00080B588B002AF46E02C4B1B68DB681B68AA
:105300003B612A4B1B68DB68DB68FB60FB6804338E
:105310001846FDF743FEFB685B6AF8689847FB6830
:10532000DB69012B2FD1FB689B693A691344BB6091
:10533000BA683B699A420ED9FB68BA685A60FB6842
:10534000FA681A61194B1A68FB680433194610464B
:10535000FDF7ECFD17E00023009300233A690021DC
:10536000F868FFF791FD78607B68002B0BD14FF058
:10537000500383F31188BFF36F8FBFF34F8F3B60F0
:1053800000BF00BFFDE7094B1B681B68002BB3D1B2
:10539000064B1B687B61064B1B68044A1360044A7A
:1053A0007B69136000BF1837BD4680BD240D002007
:1053B000280D002080B582B002AF00F02FF9154B08
:1053C0001B68002B20D11448FDF762FD1348FDF740
:1053D0005FFD134B104A1A60124B104A1A600023EB
:1053E0000093114B114A10210A20FDF76BFE034672
:1053F000084A1360074B1B68002B05D0054B1B6840
:105400000B491846FEF7AEFC00F038F900BFBD4668
:1054100080BD00BF2C0D0020FC0C0020100D0020D2
:10542000240D0020280D0020D80D0020380D00206C
:10543000C85C000880B485B000AFF860B9607A60DD
:10544000FB68043BFB60FB684FF080721A60FB68EE
:10545000043BFB60BB6823F00102FB681A60FB6839
:10546000043BFB60084AFB681A60FB68143BFB6066
:105470007A68FB681A60FB68203BFB60FB68184693
:105480001437BD4680BC70478D54000880B485B089
:1054900000AF00237B60124B1B68B3F1FF3F0BD0C2
:1054A0004FF0500383F31188BFF36F8FBFF34F8F1B
:1054B000FB6000BF00BFFDE74FF0500383F311888E
:1054C000BFF36F8FBFF34F8FBB6000BF00BF7B6820
:1054D000002BFCD000BF00BF1437BD4680BC704716
:1054E0000C00002000000000000000000000000090
:1054F000074B19680868B0E8F00F80F30988BFF31C
:105500006F8F4FF0000080F311884EF00D0E704742
:10551000FC07002000BF00BF06480068006880F359
:10552000088862B661B6BFF34F8FBFF36F8F00DF9D
:1055300000BF00BF08ED00E080B584B000AF324B83
:10554000FB60FB681B78DBB27B60FB68FF221A7094
:10555000FB681B78DBB2FB70FB78DBB203F0500317
:10556000DAB22A4B1A702A4B07221A6009E0284B3C
:105570001B68013B264A1360FB78DBB25B00DBB2A1
:10558000FB70FB78DBB203F08003802BEFD0204B65
:105590001B68C3F10703042B0BD04FF0500383F3B8
:1055A0001188BFF36F8FBFF34F8FBB6000BF00BF89
:1055B000FDE7174B1B681B02154A1360144B1B6851
:1055C00003F4E063124A13607B68DAB2FB681A7076
:1055D000104B1B680F4A43F4700313600D4B1B689C
:1055E0000C4A43F07043136000F0B8F80A4B0022F5
:1055F0001A60FFF791FFFEF78FFFFFF747FF0023C9
:1056000018461037BD4680BD00E400E0280E00209B
:105610002C0E002020ED00E00C00002080B483B0B0
:1056200000AF4FF0500383F31188BFF36F8FBFF3C8
:105630004F8F7B6000BF0F4B1B6801330D4A136017
:105640000C4B1B68012B10D10B4B1B68DBB2002BE2
:105650000BD04FF0500383F31188BFF36F8FBFF36C
:105660004F8F3B6000BF00BFFDE700BF0C37BD465A
:1056700080BC70470C00002004ED00E080B483B0D3
:1056800000AF124B1B68002B0BD14FF0500383F37C
:105690001188BFF36F8FBFF34F8F7B6000BF00BFD8
:1056A000FDE70A4B1B68013B084A1360074B1B6868
:1056B000002B05D100233B603B6883F3118800BFBA
:1056C00000BF0C37BD4680BC704700BF0C000020F7
:1056D000EFF30980BFF36F8F0D4B1A6820E9F00FCD
:1056E00010602DE908404FF0500080F31188FEF75C
:1056F00013FF4FF0000080F31188BDE808401968DF
:105700000868B0E8F00F80F30988BFF36F8F704727
:10571000FC07002000BF00BF80B582B000AF4FF093
:10572000500383F31188BFF36F8FBFF34F8F7B60FC
:1057300000BFFEF731FE0346002B03D0064B4FF0AF
:1057400080521A6000233B603B6883F3118800BFDE
:1057500000BF0837BD4680BD04ED00E080B400AF57
:105760000A4B00221A600A4B00221A60094B1B6880
:10577000094AA2FB03239B09084A013B1360034B20
:1057800007221A6000BFBD4680BC704710E000E0F1
:1057900018E000E000000020D34D621014E000E0AB
:1057A00080B485B000AFEFF30583FB60FB680F2B7F
:1057B00015D9174AFB6813441B78FB72154B1B78ED
:1057C000FA7A9A420BD24FF0500383F31188BFF359
:1057D0006F8FBFF34F8F7B6000BF00BFFDE70E4BA5
:1057E0001B6803F4E0620D4B1B689A420BD94FF023
:1057F000500383F31188BFF36F8FBFF34F8F3B606C
:1058000000BF00BFFDE700BF1437BD4680BC704736
:10581000F0E300E0280E00200CED00E02C0E00204C
:1058200080B58AB000AF78600023FB61FEF7FAFC18
:105830005A4B1B68002B01D100F016F9584B1A681F
:105840007B681340002B40F090807B68002B1ED0BB
:1058500008227B6813447B607B6803F00703002BFE
:1058600015D07B6823F0070308337B607B6803F067
:105870000703002B0BD04FF0500383F31188BFF3C5
:105880006F8FBFF34F8F7B6100BF00BFFDE77B6869
:10589000002B6AD0434B1B687A689A4265D8424B0A
:1058A0003B62414B1B687B6204E07B6A3B627B6A24
:1058B0001B687B627B6A5B687A689A4203D97B6A61
:1058C0001B68002BF1D1354B1B687A6A9A424CD089
:1058D0003B6A1B6808221344FB617B6A1A683B6AB7
:1058E0001A607B6A5A687B68D21A08235B009A4266
:1058F00020D97A6A7B681344BB61BB6903F0070354
:10590000002B0BD04FF0500383F31188BFF36F8F40
:10591000BFF34F8F3B6100BF00BFFDE77B6A5A6852
:105920007B68D21ABB695A607B6A7A685A60B86928
:1059300000F0FCF81B4B1A687B6A5B68D31A194AA3
:105940001360184B1A68194B1B689A4203D2154B07
:105950001B68164A13607B6A5A68114B1B681A430E
:105960007B6A5A607B6A00221A60FEF769FCFB6959
:1059700003F00703002B0BD04FF0500383F3118883
:10598000BFF36F8FBFF34F8FFB6000BF00BFFDE71A
:10599000FB6918462837BD4680BD00BF381A002075
:1059A000441A00203C1A0020301A0020401A00201F
:1059B00080B586B000AF78607B687B617B68002B28
:1059C0004AD008235B427A6913447B617B693B615F
:1059D0003B695A68224B1B681340002B0BD14FF0D8
:1059E000500383F31188BFF36F8FBFF34F8FFB60BA
:1059F00000BF00BFFDE73B691B68002B0BD04FF0D9
:105A0000500383F31188BFF36F8FBFF34F8FBB60D9
:105A100000BF00BFFDE73B695A68114B1B6813408C
:105A2000002B19D03B691B68002B15D13B695A68C4
:105A30000B4B1B68DB431A403B695A60FEF7F2FBD5
:105A40003B695A68074B1B681344064A1360386960
:105A500000F06CF8FEF7F4FB00BF1837BD4680BDC0
:105A6000441A00203C1A002080B485B000AF4FF4E7
:105A70004063BB60274BFB60FB6803F00703002B10
:105A80000CD0FB680733FB60FB6823F00703FB6067
:105A9000BA68FB68D31A1F4A1344BB60FB687B607B
:105AA0001D4A7B6813601C4B00225A607B68BA68F1
:105AB0001344FB600822FB689B1AFB60FB6823F021
:105AC0000703FB60FB68154A1360144B1B68002238
:105AD0005A60124B1B6800221A607B683B603B686F
