:020000040800F2
:1000000000500020C10A0008690A0008750A0008AB
:100010007D0A0008850A00088D0A0008000000001B
:10002000000000000000000000000000E13D0008AA
:10003000950A000800000000C13F000809400008C0
:10004000090B0008090B0008090B0008090B000840
:10005000090B0008090B0008090B0008090B000830
:10006000090B0008090B0008090B0008090B000820
:10007000090B0008090B0008090B0008090B000810
:10008000090B0008090B0008090B0008090B000800
:10009000090B0008090B0008090B0008090B0008F0
:1000A000090B0008A10A0008090B0008090B000849
:1000B000090B0008090B0008090B0008090B0008D0
:1000C000090B0008090B0008090B0008090B0008C0
:1000D000090B0008090B0008090B0008090B0008B0
:1000E000090B0008090B0008090B000800000000BC
:1000F0000000000000000000000000000000000000
:0C01000000000000000000005FF808F1A3
:1001100010B5054C237833B9044B13B10448AFF341
:1001200000800123237010BD10000020000000009B
:10013000A444000808B5034B1BB103490348AFF3BF
:10014000008008BD0000000014000020A444000846
:10015000034613F8012B002AFBD1181A0138704707
:1001600080B485B000AFF860B9607A60FB68064A79
:100170001A60BB68054A1A607B6880221A6000BF5B
:100180001437BD4680BC70472C0000208000002042
:10019000B0B596B000AF00F0B9FC00F04FF800F039
:1001A00047F900F0A9F800F0E5F800F017F91D4B49
:1001B00007F13C041D460FCD0FC495E8070084E805
:1001C000070007F13C030021184602F071FF0346C7
:1001D000154A1360154B07F120041D460FCD0FC4BF
:1001E00095E8070084E8070007F12003002118467E
:1001F00002F05EFF03460E4A13600E4B3C1D1D4687
:100200000FCD0FC495E8070084E807003B1D0021CF
:10021000184602F04DFF0346074A136002F041FF03
:1002200000BFFDE7CC44000820030020F84400088C
:10023000240300201C4500082803002080B594B04A
:1002400000AF07F1280328220021184604F0FEF829
:1002500007F1140300221A605A609A60DA601A618A
:100260003B1D00221A605A609A60DA600123BB626B
:100270004FF48033FB6200233B630123BB63022303
:100280007B644FF48033BB644FF4E013FB6407F1ED
:100290002803184601F002FD0346002B01D000F0B0
:1002A00061FA0F237B610223BB610023FB614FF4E2
:1002B00080633B6200237B6207F11403022118462E
:1002C00001F06EFF0346002B01D000F04BFA022331
:1002D0007B604FF40043FB603B1D184602F044F97D
:1002E0000346002B01D000F03DFA02F043F800BFB6
:1002F0005037BD4680BD000080B584B000AF3B1DC7
:1003000000221A605A609A60184B194A1A60174BFB
:1003100000229A60154B00221A73144B00221A75A2
:10032000124B4FF46022DA61104B00225A600F4BDF
:1003300001221A610D4800F03FFC0346002B01D05A
:1003400000F010FA00237B600123BB600023FB60F8
:100350003B1D1946054800F0C7FE0346002B01D09F
:1003600000F000FA00BF1037BD4680BD80020020BB
:100370000024014080B500AF164B174A1A60154B98
:1003800010225A60134B00229A60124B0022DA604E
:10039000104B00221A610F4B00225A610D4B0022B4
:1003A0001A760C4B00225A760A4B00229A76094B99
:1003B0000022DA76074B00221A77064B00225A7782
:1003C000044801F024F80346002B01D000F0CAF9DC
:1003D00000BF80BDB00200200064004080B500AFC7
:1003E000114B124A1A60104B4FF4E1325A600E4B17
:1003F00000229A600C4B0022DA600B4B00221A613B
:10040000094B0C225A61084B00229A61064B0022CC
:10041000DA61054802F05EFC0346002B01D000F0D3
:10042000A1F900BF80BD00BFD802002000440040F9
:1004300080B588B000AF07F1100300221A605A603F
:100440009A60DA60274B9B69264A43F01003936158
:10045000244B9B6903F01003FB60FB68214B9B69F5
:10046000204A43F0200393611E4B9B6903F0200355
:10047000BB60BB681B4B9B691A4A43F00403936142
:10048000184B9B6903F004037B607B6800224FF4E8
:100490000051154801F0EAFB00220221134801F047
:1004A000E5FB4FF400533B6101237B610023BB61FB
:1004B0000223FB6107F1100319460B4801F052FAC1
:1004C00002233B6101237B610023BB610223FB61AB
:1004D00007F110031946054801F044FA00BF203720
:1004E000BD4680BD001002400010014000080140E0
:1004F00080B584B000AF7860254BFB60F868FFF7EB
:1005000027FE03469AB24FF0FF33F968214802F004
:1005100031FC214800F028FC204BFB60F868FFF715
:1005200017FE03469AB24FF0FF33F968194802F0FC
:1005300021FC4FF0FF31184800F0C4FC0346002BAB
:1005400007D1154800F0C4FD03469AB2144B1A8037
:100550000CE0144BFB60F868FFF7FAFD03469AB213
:100560004FF0FF33F9680B4802F004FC0E4BFB60C0
:10057000F868FFF7EDFD03469AB24FF0FF33F968D4
:10058000044802F0F7FB4FF4FA6002F0DDFDB3E738
:1005900038450008D802002080020020504500089D
:1005A0002C030020684500088045000880B584B011
:1005B00000AF786001224FF400512D4801F056FB46
:1005C0004FF4FA7000F0D4FA00224FF4005128489A
:1005D00001F04CFB4FF4FA7000F0CAFA254BFB60B7
:1005E000F868FFF7B5FD03469AB24FF0FF33F9689C
:1005F000214802F0BFFB214B1B88B3F57A7F12D252
:10060000012202211E4801F031FB1E4BFB60F868FD
:10061000FFF79EFD03469AB24FF0FF33F968164884
:1006200002F0A8FB11E000220221154801F01EFB98
:10063000154BFB60F868FFF78BFD03469AB24FF04D
:10064000FF33F9680C4802F095FB104BFB60F8682B
:10065000FFF77EFD03469AB24FF0FF33F968064874
:1006600002F088FB4FF4FA6002F06EFDA2E700BFD3
:100670000010014098450008D80200202C030020FB
:1006800000080140B0450008C8450008E0450008E2
:1006900080B584B000AF7860214B02221A61204BF4
:1006A00000229A601E4B05221A601D4B0022DA6060
:1006B0001C4BFB60F868FFF74BFD03469AB24FF006
:1006C000FF33F968184802F055FB184B1B88DAB263
:1006D000174B1A70154B1B881B0A9BB2002B14BFBB
:1006E00001230023DBB21A46114B5A70114B104AFA
:1006F0000B49114800F086FF4FF47A7002F024FD98
:100700000E4BFB60F868FFF723FD03469AB24FF0EB
:10071000FF33F968044802F02DFB00BFC8E700BFB3
:1007200030030020F8450008D80200202C030020E8
:10073000480300204C030020B00200200C460008B3
:1007400080B582B000AF78607B681B68044A934232
:1007500001D100F0F1F900BF0837BD4680BD00BFF0
:10076000002C014080B400AF72B600BF00BFFDE7AF
:1007700080B584B000AF184B9B69174A43F0010362
:100780009361154B9B6903F00103BB60BB68124B7F
:10079000DB69114A43F08053D3610F4BDB6903F0EF
:1007A00080537B607B6800220F216FF0010001F015
:1007B000AEF80A4B5B68FB60FB6823F0E063FB600C
:1007C000FB6843F00073FB60044AFB68536000BFA2
:1007D0001037BD4680BD00BF001002400000014040
:1007E00080B588B000AF786007F1100300221A606E
:1007F0005A609A60DA607B681B68144A934221D180
:10080000134B9B69124A43F400739361104B9B692D
:1008100003F40073FB60FB680D4B9B690C4A43F0CB
:10082000040393610A4B9B6903F00403BB60BB683C
:1008300001233B6103237B6107F11003194605483F
:1008400001F090F800BF2037BD4680BD0024014074
:10085000001002400008014080B588B000AF786009
:1008600007F1100300221A605A609A60DA607B6810
:100870001B681C4A934231D11B4BDB691A4A43F077
:100880000073D361184BDB6903F00073FB60FB68F6
:10089000154B9B69144A43F004039361124B9B6907
:1008A00003F00403BB60BB684FF400633B610023AB
:1008B0007B610023BB6107F1100319460B4801F06F
:1008C00051F84FF480533B6102237B610323FB61AA
:1008D00007F110031946054801F044F800BF20371E
:1008E000BD4680BD00640040001002400008014089
:1008F00080B588B000AF786007F1100300221A605D
:100900005A609A60DA607B681B681B4A93422FD159
:100910001A4BDB69194A43F40033D361174BDB6987
:1009200003F40033FB60FB68144B9B69134A43F0EC
:1009300004039361114B9B6903F00403BB60BB6824
:1009400004233B6102237B610323FB6107F1100356
:1009500019460B4801F006F808233B6100237B6130
:100960000023BB6107F110031946054800F0FAFFA8
:1009700000BF2037BD4680BD00440040001002404B
:100980000008014080B58CB000AF78600023BB62E6
:1009900000237B62002387F82F302E4B9B692D4A62
:1009A00043F4006393612B4B9B6903F40063BB60CA
:1009B000BB6807F10C0207F110031146184601F05D
:1009C0006BFD01F055FDB862BB6A234AA2FB03230D
:1009D0009B0C013B7B62214B214A1A601F4B40F26A
:1009E000E732DA601D4A7B6A53601C4B00221A61B1
:1009F0001A4B00229A60194B00229A61174801F0A5
:100A00001FFF034687F82F3097F82F30002B1BD19C
:100A1000124801F06DFF034687F82F3097F82F300A
:100A2000002B11D1192000F08EFF7B680F2B08D806
:100A300000227968192000F06AFF0A4A7B68136077
:100A400002E0012387F82F3097F82F30184630370F
:100A5000BD4680BD0010024083DE1B4350030020D2
:100A6000002C01400400002080B500AF01F044FDDF
:100A700000BFFDE780B400AF00BFFDE780B400AF6A
:100A800000BFFDE780B400AF00BFFDE780B400AF5A
:100A900000BFFDE780B400AF00BFBD4680BC70471B
:100AA00080B500AF024801F075FF00BF80BD00BFF8
:100AB0005003002080B400AF00BFBD4680BC70472B
:100AC000FFF7F8FF0B480C490C4A002302E0D4580A
:100AD000C4500433C4188C42F9D3094A094C00238A
:100AE00001E013600432A242FBD303F0B7FCFFF72E
:100AF0004FFB7047000000201000002078460008DF
:100B000010000020E8100020FEE7000080B500AFD4
:100B1000084B1B68074A43F010031360032000F0E2
:100B2000EBFE0F20FFF72EFFFFF722FE00231846F3
:100B300080BD00BF0020024080B400AF054B1B7891
:100B40001A46054B1B681344034A136000BFBD4699
:100B500080BC7047080000209803002080B400AFDC
:100B6000024B1B681846BD4680BC704798030020A6
:100B700080B584B000AF7860FFF7F0FFB8607B68A5
:100B8000FB60FB68B3F1FF3F05D00A4B1B781A46A8
:100B9000FB681344FB6000BFFFF7E0FF0246BB6841
:100BA000D31AFA689A42F7D800BF00BF1037BD4683
:100BB00080BD00BF0800002080B586B000AF78601F
:100BC0000023FB7500233B610023BB600023FB6017
:100BD0007B68002B01D10123BEE07B689B68002B62
:100BE0007B689B6A002B09D17B680022DA627B68F4
:100BF000002283F824207868FFF7F2FD786800F07F
:100C0000C5FB0346FB757B689B6A03F01003002B52
:100C100040F09980FB7D002B40F095807B689B6ABB
:100C200023F4885323F0020343F002027B689A62A4
:100C30007B685A687B68DB691A437B681B7B5B00B7
:100C40001343BA681343BB607B689B68B3F5807F2E
:100C500003D07B689B68012B02D14FF4807300E0C6
:100C600000233A6913433B617B681B7D012B19D13B
:100C70007B681B7B002B09D17B689B69013B5A0376
:100C80003B69134343F400633B610BE07B689B6A61
:100C900043F020027B689A627B68DB6A43F00102C2
:100CA0007B68DA627B681B685B6823F469417B6858
:100CB0001B683A690A435A607B681B689A68284B2C
:100CC00013407A681268B9680B4393607B689B682D
:100CD000B3F5807F03D07B689B68012B04D17B68D0
:100CE0001B69013B1B05FB607B681B68DB6A23F407
:100CF00070017B681B68FA680A43DA627B681B68CC
:100D00009A68184B1340BA689A420BD17B6800224C
:100D1000DA627B689B6A23F0030343F001027B687D
:100D20009A6218E07B689B6A23F0120343F010027A
:100D30007B689A627B68DB6A43F001027B68DA6257
:100D40000123FB7507E07B689B6A43F010027B6818
:100D50009A620123FB75FB7D18461837BD4680BD9E
:100D6000FDF7E1FFFE0E1FFF80B584B000AF786095
:100D70000023FB737B6893F82430012B01D10223FD
:100D800098E07B68012283F82420786800F0A4FAB8
:100D90000346FB73FB7B002B40F087807B689B6ADC
:100DA00023F4407323F0010343F480727B689A625A
:100DB0007B681B68414A934205D1414B5B6803F451
:100DC0007023002B15D17B689B6A23F480127B680B
:100DD0009A627B681B685B6803F48063002B26D0F3
:100DE0007B689B6A23F4405343F480527B689A6289
:100DF0001DE07B689B6A43F480127B689A627B6883
:100E00001B682F4A934204D07B681B682B4A93428D
:100E10000DD12B4B5B6803F48063002B07D07B68FC
:100E20009B6A23F4405343F480527B689A627B6848
:100E30009B6A03F48053002B06D07B68DB6A23F0A7
:100E400006027B68DA6202E07B680022DA627B6875
:100E5000002283F824207B681B686FF002021A606E
:100E60007B681B689B6803F46023B3F5602F13D184
:100E70007B681B68114A934205D1114B5B6803F4F0
:100E80007023002B08D17B681B689A687B681B68FD
:100E900042F4A0029A600CE07B681B689A687B6849
:100EA0001B6842F480129A6003E07B68002283F89A
:100EB0002420FB7B18461037BD4680BD002801402A
:100EC0000024014090B587B000AF786039600023FE
:100ED0007B610023FB6000233B61FFF73FFE7861ED
:100EE0007B681B689B6803F48073002B0BD07B68C6
:100EF0009B6A43F020027B689A627B68002283F839
:100F000024200123D3E07B681B685B6803F48073B3
:100F1000002B31D17B681B68DB6A03F47003002B64
:100F20002AD121E03B68B3F1FF3F1DD03B68002B85
:100F300007D0FFF713FE02467B69D31A3A689A423C
:100F400012D27B681B681B6803F00203002B0BD1D5
:100F50007B689B6A43F004027B689A627B6800228C
:100F600083F824200323A2E07B681B681B6803F03E
:100F70000203002BD6D070E04F4B1C68022001F01A
:100F8000A9FB0346B4FBF3F27B681B6819694B4B62
:100F90000B40002B18D17B681B68D968484B0B406D
:100FA000002B11D17B681B681969464B0B40002B45
:100FB00008D17B681B68D968434B0B40002B01D1DB
:100FC000142320E029231EE07B681B6819693D4B30
:100FD0000B40002B06D17B681B68D9683A4B0B404D
:100FE000002B0DD07B681B681969384B0B40002B18
:100FF00008D17B681B68D968344B0B40002B01D1AA
:10100000542300E0FC2302FB03F33B6121E03B6837
:10101000B3F1FF3F1AD03B68002B07D0FFF79EFDCE
:1010200002467B69D31A3A689A420FD2FB683A6942
:101030009A420BD97B689B6A43F004027B689A62F0
:101040007B68002283F82420032330E0FB6801330F
:10105000FB60FB683A699A42D9D87B681B686FF0DD
:1010600012021A607B689B6A43F400727B689A6282
:101070007B681B689B6803F46023B3F5602F15D170
:101080007B681B7B002B11D17B689B6A23F48072E9
:101090007B689A627B689B6A03F48053002B05D1BE
:1010A0007B689B6A43F001027B689A6200231846C2
:1010B0001C37BD4690BD00BF00000020244992248B
:1010C0002449920092244912922449004992240012
:1010D00080B483B000AF78607B681B68DB6C184617
:1010E0000C37BD4680BC704780B485B000AF7860D7
:1010F00039600023FB730023BB607B6893F82430C6
:10110000012B01D10223DCE07B68012283F824203B
:101110003B685B68062B1CD87B681B68596B3B6877
:101120005A6813469B001344053B1F2202FA03F33F
:10113000DB4319403B6818683B685A6813469B00BC
:101140001344053B00FA03F27B681B680A435A63A9
:101150003CE03B685B680C2B1CD87B681B68196BF8
:101160003B685A6813469B001344233B1F2202FA34
:1011700003F3DB4319403B6818683B685A68134621
:101180009B001344233B00FA03F27B681B680A436D
:101190001A631BE07B681B68D96A3B685A68134670
:1011A0009B001344413B1F2202FA03F3DB43194027
:1011B0003B6818683B685A6813469B001344413BE0
:1011C00000FA03F27B681B680A43DA623B681B681B
:1011D000092B1CD97B681B68D9683B681A681346C1
:1011E0005B0013441E3B072202FA03F3DB43194062
:1011F0003B6898683B681A6813465B0013441E3BC3
:1012000000FA03F27B681B680A43DA6019E07B6826
:101210001B6819693B681A6813465B001344072270
:1012200002FA03F3DB4319403B6898683B681A688D
:1012300013465B00134400FA03F27B681B680A4301
:101240001A613B681B68102B03D03B681B68112B8D
:1012500032D17B681B681D4A934225D17B681B688D
:101260009B6803F40003002B26D17B681B689A68F7
:101270007B681B6842F400029A603B681B68102B75
:101280001AD1134B1B68134AA2FB03239A0C134673
:101290009B0013445B00BB6002E0BB68013BBB608A
:1012A000BB68002BF9D107E07B689B6A43F0200202
:1012B0007B689A620123FB737B68002283F82420F9
:1012C000FB7B18461437BD4680BC704700240140A4
:1012D0000000002083DE1B4380B584B000AF78603F
:1012E0000023FB600023BB607B681B689B6803F0E6
:1012F0000103012B40D07B681B689A687B681B68E0
:1013000042F001029A601F4B1B681F4AA2FB032395
:101310009B0CBB6002E0BB68013BBB60BB68002B61
:10132000F9D1FFF71BFCF8601FE0FFF717FC02463E
:10133000FB68D31A022B18D97B681B689B6803F0E3
:101340000103012B11D07B689B6A43F010027B687C
:101350009A627B68DB6A43F001027B68DA627B6831
:10136000002283F82420012307E07B681B689B6828
:1013700003F00103012BD8D1002318461037BD46D6
:1013800080BD00BF0000002083DE1B4380B584B019
:1013900000AF78600023FB607B681B689B6803F0EC
:1013A0000103012B2ED17B681B689A687B681B6840
:1013B00022F001029A60FFF7D1FBF8601BE0FFF713
:1013C000CDFB0246FB68D31A022B14D97B681B683D
:1013D0009B6803F00103012B0DD17B689B6A43F0EE
:1013E00010027B689A627B68DB6A43F001027B68CB
:1013F000DA62012307E07B681B689B6803F0010346
:10140000012BDCD0002318461037BD4680BD80B5C7
:1014100084B000AF78607B68002B01D10123EDE040
:101420007B6893F82030DBB2002B02D17868FFF79D
:1014300013FA7B681B681A687B681B6842F001021C
:101440001A60FFF78BFBF86012E0FFF787FB02469C
:10145000FB68D31A0A2B0BD97B685B6A43F4003212
:101460007B685A627B68052283F820200123C5E04F
:101470007B681B685B6803F00103002BE5D07B6889
:101480001B681A687B681B6822F002021A60FFF76B
:1014900065FBF86012E0FFF761FB0246FB68D31AB8
:1014A0000A2B0BD97B685B6A43F400327B685A6273
:1014B0007B68052283F8202001239FE07B681B685E
:1014C0005B6803F00203002BE5D17B681B7E012BD8
:1014D00008D17B681B681A687B681B6842F0800231
:1014E0001A6007E07B681B681A687B681B6822F03B
:1014F00080021A607B685B7E012B08D17B681B68C9
:101500001A687B681B6842F040021A6007E07B683B
:101510001B681A687B681B6822F040021A607B68AF
:101520009B7E012B08D17B681B681A687B681B684F
:1015300042F020021A6007E07B681B681A687B682B
:101540001B6822F020021A607B68DB7E012B08D129
:101550007B681B681A687B681B6822F010021A609F
:1015600007E07B681B681A687B681B6842F0100202
:101570001A607B681B7F012B08D17B681B681A6887
:101580007B681B6842F008021A6007E07B681B68F2
:101590001A687B681B6822F008021A607B685B7F10
:1015A000012B08D17B681B681A687B681B6842F0B6
:1015B00004021A6007E07B681B681A687B681B6876
:1015C00022F004021A607B689A687B68DB681A4321
:1015D0007B681B691A437B685B6942EA03017B688D
:1015E0005B685A1E7B681B680A43DA617B680022CD
:1015F0005A627B68012283F82020002318461037A6
:10160000BD4680BD80B489B000AFF860B9607A6033
:101610003B60FB6893F82030FB77FB681B689B6896
:10162000BB61FB7F012B03D0FB7F022B40F0AD8021
:10163000BB6903F08063002B0AD1BB6903F0006330
:10164000002B05D1BB6903F08053002B00F095807F
:10165000BB691B0E03F003037B6101227B699A4087
:101660003B681A60BB689B68002B0DD1BB681B6888
:101670005A05BB68DB68F96809681A437B69183347
:101680001B010B441A600FE0BB685B68DA00BB68A3
:101690009B681A43BB68DB68F96809681A437B6971
:1016A00018331B010B441A60FB681968BB681A6980
:1016B0007B6918331B010B4404331A60BB681B7D24
:1016C000012B11D1FB681A687B6918331B01134485
:1016D00004331B68FA68116843F480727B6918331D
:1016E0001B010B4404331A607B6807331B781A060E
:1016F0007B6806331B781B041A437B6805331B7811
:101700001B0213437A68043212781046FA68116893
:1017100043EA00027B691B010B4403F5C6731A60A0
:101720007B6803331B781A067B6802331B781B0423
:101730001A437B6801331B781B0213437A681278C3
:101740001046FA68116843EA00027B691B010B44EA
:1017500003F5C4731A60FB681A687B6918331B01B0
:1017600013441B68FA68116843F001027B6918335F
:101770001B010B441A6000230EE0FB685B6A43F414
:101780000012FB685A62012306E0FB685B6A43F4BF
:101790008022FB685A62012318462437BD4680BC6C
:1017A0007047000080B485B000AF78607B6803F0BC
:1017B0000703FB600C4BDB68BB60BA684FF6FF03A6
:1017C0001340BB60FB681A02BB68134343F0BF635E
:1017D00043F40033BB60044ABB68D36000BF1437D6
:1017E000BD4680BC704700BF00ED00E080B400AF94
:1017F000044BDB681B0A03F007031846BD4680BC98
:10180000704700BF00ED00E080B483B000AF034636
:10181000FB7197F90730002B0BDBFB7903F01F02FC
:10182000064997F907305B09012000FA02F241F8F6
:10183000232000BF0C37BD4680BC704700E100E0AC
:1018400080B483B000AF03463960FB7197F907306D
:10185000002B0ADB3B68DAB20C4997F9073012011A
:10186000D2B20B4483F800230AE03B68DAB208499D
:10187000FB7903F00F03043B1201D2B20B441A763A
:1018800000BF0C37BD4680BC704700BF00E100E0E0
:1018900000ED00E080B489B000AFF860B9607A6014
:1018A000FB6803F00703FB61FB69C3F10703042B2B
:1018B00028BF0423BB61FB690433062B02D9FB69F3
:1018C000033B00E000237B614FF0FF32BB6902FA6B
:1018D00003F3DA43BB681A407B699A404FF0FF314B
:1018E0007B6901FA03F3D9437B680B401343184625
:1018F0002437BD4680BC704780B582B000AF7860A9
:101900007868FFF74FFF00BF0837BD4680BD80B540
:1019100086B000AF0346B9607A60FB7300237B6139
:10192000FFF764FF78617A68B9687869FFF7B2FFFA
:10193000024697F90F3011461846FFF781FF00BFA6
:101940001837BD4680BD80B582B000AF0346FB713D
:1019500097F907301846FFF757FF00BF0837BD4615
:1019600080BD000080B48BB000AF78603960002388
:101970007B6200233B6269E101227B6A02FA03F386
:10198000FB613B681B68FA691340BB61BA69FB697C
:101990009A4240F058813B685B689A4A93425ED015
:1019A000984A934275D8984A934258D0964A93429F
:1019B0006FD8964A934252D0944A934269D8944A37
:1019C00093424CD0924A934263D8924A934246D073
:1019D000904A93425DD8122B2AD8122B59D801A2D3
:1019E00052F823F05F1A0008391A00084B1A000851
:1019F0008D1A0008931A0008931A0008931A000819
:101A0000931A0008931A0008931A0008931A000802
:101A1000931A0008931A0008931A0008931A0008F2
:101A2000931A0008931A0008411A0008551A000872
:101A3000794A934213D02CE03B68DB683B6229E093
:101A40003B68DB6804333B6224E03B68DB680833B7
:101A50003B621FE03B68DB680C333B621AE03B688B
:101A60009B68002B02D104233B6213E03B689B6818
:101A7000012B05D108233B627B68FA691A6109E0F2
:101A800008233B627B68FA695A6103E000233B62EA
:101A900000E000BFBB69FF2B01D87B6801E07B68D9
:101AA00004337B61BB69FF2B02D87B6A9B0002E099
:101AB0007B6A083B9B003B617B691A680F213B698D
:101AC00001FA03F3DB431A40396A3B6901FA03F375
:101AD0001A437B691A603B685B6803F08053002BF4
:101AE00000F0B1804D4B9B694C4A43F00103936178
:101AF0004A4B9B6903F00103BB60BB68484A7B6AA1
:101B00009B08023352F82330FB607B6A03F0030327
:101B10009B000F2202FA03F3DB43FA681340FB60D9
:101B20007B68404A934213D07B683F4A93420DD072
:101B30007B683E4A934207D07B683D4A934201D17D
:101B4000032306E0042304E0022302E0012300E073
:101B500000237A6A02F0030292009340FA6813436A
:101B6000FB602F497B6A9B080233FA6841F8232007
:101B70003B685B6803F48013002B06D02D4B9A68FA
:101B80002C49BB6913438B6006E02A4B9A68BB69FA
:101B9000DB43284913408B603B685B6803F4001308
:101BA000002B06D0234BDA682249BB691343CB6074
:101BB00006E0204BDA68BB69DB431E491340CB606B
:101BC0003B685B6803F40033002B06D0194B5A685E
:101BD0001849BB6913434B6006E0164B5A68BB6952
:101BE000DB43144913404B603B685B6803F480336C
:101BF000002B21D00F4B1A680E49BB6913430B60B1
:101C000021E000BF0000321000003110000022105F
:101C100000002110000012100000111000100240FE
:101C20000000014000080140000C0140001001408C
:101C300000140140000401400B4B1A68BB69DB43F0
:101C4000094913400B607B6A01337B623B681A6869
:101C50007B6A22FA03F3002B7FF48EAE00BF00BF35
:101C60002C37BD4680BC70470004014080B483B06F
:101C700000AF78600B467B8013467B707B78002B2F
:101C800003D07A887B681A6103E07B881A047B683A
:101C90001A6100BF0C37BD4680BC704780B586B066
:101CA00000AF78607B68002B01D1012372E27B6872
:101CB0001B6803F00103002B00F08780924B5B68E8
:101CC00003F00C03042B0CD08F4B5B6803F00C0368
:101CD000082B12D18C4B5B6803F48033B3F5803F43
:101CE0000BD1894B1B6803F40033002B6CD07B684D
:101CF0005B68002B68D101234CE27B685B68B3F51D
:101D0000803F06D1804B1B687F4A43F480331360C9
:101D10002EE07B685B68002B0CD17B4B1B687A4AFA
:101D200023F480331360784B1B68774A23F48023B5
:101D300013601DE07B685B68B3F5A02F0CD1724B7C
:101D40001B68714A43F4802313606F4B1B686E4A13
:101D500043F4803313600BE06B4B1B686A4A23F437
:101D600080331360684B1B68674A23F48023136039
:101D70007B685B68002B13D0FEF7F0FE386108E04B
:101D8000FEF7ECFE02463B69D31A642B01D903230C
:101D900000E25D4B1B6803F40033002BF0D014E02D
:101DA000FEF7DCFE386108E0FEF7D8FE02463B692C
:101DB000D31A642B01D90323ECE1534B1B6803F4C2
:101DC0000033002BF0D100E000BF7B681B6803F0FC
:101DD0000203002B63D04C4B5B6803F00C03002B19
:101DE0000BD0494B5B6803F00C03082B1CD1464B0E
:101DF0005B6803F48033002B16D1434B1B6803F060
:101E00000203002B05D07B681B69012B01D0012345
:101E1000C0E13D4B1B6823F0F8027B685B69DB0087
:101E2000394913430B603AE07B681B69002B20D0D3
:101E3000364B01221A60FEF791FE386108E0FEF78A
:101E40008DFE02463B69D31A022B01D90323A1E17F
:101E50002D4B1B6803F00203002BF0D02A4B1B68AC
:101E600023F0F8027B685B69DB00274913430B60B2
:101E700015E0264B00221A60FEF770FE386108E07C
:101E8000FEF76CFE02463B69D31A022B01D90323ED
:101E900080E11D4B1B6803F00203002BF0D17B682F
:101EA0001B6803F00803002B3AD07B689B69002B6A
:101EB00019D0174B01221A60FEF750FE386108E076
:101EC000FEF74CFE02463B69D31A022B01D90323CD
:101ED00060E10D4B5B6A03F00203002BF0D00120A0
:101EE00000F01EFB1CE00A4B00221A60FEF736FED3
:101EF00038610FE0FEF732FE02463B69D31A022B2F
:101F000008D9032346E100BF00100240000042420E
:101F100080044242924B5B6A03F00203002BE9D13A
:101F20007B681B6803F00403002B00F0A6800023ED
:101F3000FB758B4BDB6903F08053002B0DD1884B75
:101F4000DB69874A43F08053D361854BDB6903F03B
:101F50008053BB60BB680123FB75824B1B6803F495
:101F60008073002B18D17F4B1B687E4A43F480732B
:101F70001360FEF7F3FD386108E0FEF7EFFD02465F
:101F80003B69D31A642B01D9032303E1754B1B680A
:101F900003F48073002BF0D07B68DB68012B06D143
:101FA0006F4B1B6A6E4A43F0010313622DE07B689E
:101FB000DB68002B0CD16A4B1B6A694A23F00103D2
:101FC0001362674B1B6A664A23F0040313621CE02A
:101FD0007B68DB68052B0CD1614B1B6A604A43F0C0
:101FE000040313625E4B1B6A5D4A43F001031362F4
:101FF0000BE05B4B1B6A5A4A23F001031362584BF8
:102000001B6A574A23F0040313627B68DB68002BCA
:1020100015D0FEF7A3FD38610AE0FEF79FFD0246EA
:102020003B69D31A41F28832934201D90323B1E0CC
:102030004B4B1B6A03F00203002BEED014E0FEF7BB
:102040008DFD38610AE0FEF789FD02463B69D31A2F
:1020500041F28832934201D903239BE0404B1B6A33
:1020600003F00203002BEED1FB7D012B05D13C4B8D
:10207000DB693B4A23F08053D3617B68DB69002B2B
:1020800000F08780364B5B6803F00C03082B61D0AF
:102090007B68DB69022B46D1334B00221A60FEF7C6
:1020A0005DFD386108E0FEF759FD02463B69D31A31
:1020B000022B01D903236DE0294B1B6803F0007349
:1020C000002BF0D17B681B6AB3F5803F08D1244B0D
:1020D0005B6823F400327B689B68214913434B60A3
:1020E0001F4B5B6823F474127B68196A7B685B6A18
:1020F0000B431B4913434B601B4B01221A60FEF735
:102100002DFD386108E0FEF729FD02463B69D31A30
:10211000022B01D903233DE0114B1B6803F0007330
:10212000002BF0D035E0104B00221A60FEF716FDB0
:10213000386108E0FEF712FD02463B69D31A022B14
:1021400001D9032326E0064B1B6803F00073002B24
:10215000F0D11EE07B68DB69012B07D1012319E078
:102160000010024000700040600042420B4B5B6870
:10217000FB60FB6803F480327B681B6A9A4206D1DD
:10218000FB6803F470127B685B6A9A4201D00123FA
:1021900000E0002318461837BD4680BD00100240FD
:1021A00080B584B000AF786039607B68002B01D1C6
:1021B0000123D0E06A4B1B6803F007033A689A4298
:1021C00010D9674B1B6823F0070265493B6813432E
:1021D0000B60634B1B6803F007033A689A4201D017
:1021E0000123B8E07B681B6803F00203002B20D0BA
:1021F0007B681B6803F00403002B05D0594B5B6818
:10220000584A43F4E06353607B681B6803F008039B
:10221000002B05D0534B5B68524A43F46053536024
:10222000504B5B6823F0F0027B689B684D49134379
:102230004B607B681B6803F00103002B40D07B6878
:102240005B68012B07D1474B1B6803F40033002B5D
:1022500015D101237FE07B685B68022B07D1414BDE
:102260001B6803F00073002B09D1012373E03D4B81
:102270001B6803F00203002B01D101236BE0394BF3
:102280005B6823F003027B685B68364913434B604D
:10229000FEF764FCF8600AE0FEF760FC0246FB68AB
:1022A000D31A41F28832934201D9032353E02D4BD4
:1022B0005B6803F00C027B685B689B009A42EBD181
:1022C000274B1B6803F007033A689A4210D2244B4D
:1022D0001B6823F0070222493B6813430B60204B25
:1022E0001B6803F007033A689A4201D0012332E0E9
:1022F0007B681B6803F00403002B08D0194B5B6854
:1023000023F4E0627B68DB68164913434B607B680B
:102310001B6803F00803002B09D0124B5B6823F401
:1023200060527B681B69DB000E4913434B6000F071
:102330002DF802460B4B5B681B0903F00F030A499B
:10234000CB5C22FA03F3094A1360094B1B68184659
:10235000FEF718FB002318461037BD4680BD00BFAE
:102360000020024000100240284600080000002023
:102370000400002080B400AF034B01221A6000BFAC
:10238000BD4680BC704700BF4C00424280B487B05D
:1023900000AF0023FB600023BB6000237B610023B0
:1023A0007B6000233B611E4B5B68FB60FB6803F0B6
:1023B0000C03042B02D0082B03D027E0194B3B6100
:1023C00027E0FB689B0C03F00F03174AD35C7B608C
:1023D000FB6803F48033002B10D0114B5B685B0C5F
:1023E00003F00103114AD35CBB607B680D4A03FB19
:1023F00002F2BB68B2FBF3F37B6104E07B680C4A3A
:1024000002FB03F37B617B693B6102E0054B3B61AF
:1024100000BF3B6918461C37BD4680BC704700BFF3
:102420000010024000127A004046000850460008A2
:1024300000093D0080B400AF024B1B681846BD4642
:1024400080BC70470000002080B500AFFFF7F2FFAE
:102450000246054B5B681B0A03F007030349CB5C8C
:1024600022FA03F3184680BD0010024038460008E7
:1024700080B500AFFFF7DEFF0246054B5B68DB0A65
:1024800003F007030349CB5C22FA03F3184680BD2F
:10249000001002403846000880B483B000AF786076
:1024A00039607B680F221A60114B5B6803F00302EE
:1024B0007B685A600E4B5B6803F0F0027B689A60A1
:1024C0000B4B5B6803F4E0627B68DA60084B5B6887
:1024D000DB0803F4E0627B681A61064B1B6803F0BB
:1024E00007023B681A6000BF0C37BD4680BC7047CE
:1024F000001002400020024080B500AF064B9B68F0
:1025000003F08003802B04D100F028F8034B8022D5
:102510001A7000BF80BD00BF001002400A100240C8
:1025200080B485B000AF78600A4B1B680A4AA2FBF2
:1025300003235B0A7A6802FB03F3FB6000BFFB68BE
:102540005A1EFA60002BF9D100BF00BF1437BD46F8
:1025500080BC704700000020D34D621080B400AFF3
:1025600000BFBD4680BC704780B586B000AF7860C4
:1025700000233B610023FB607B681B6803F00103C1
:10258000002B7DD00023FB754F4BDB6903F080539C
:10259000002B0DD14C4BDB694B4A43F08053D36188
:1025A000494BDB6903F08053BB60BB680123FB75BB
:1025B000464B1B6803F48073002B18D1434B1B68F8
:1025C000424A43F480731360FEF7C8FA386108E0AA
:1025D000FEF7C4FA02463B69D31A642B01D90323E0
:1025E0006DE03A4B1B6803F48073002BF0D0364B40
:1025F0001B6A03F44073FB60FB68002B2ED07B68E2
:102600005B6803F44073FA689A4227D02E4B1B6A2A
:1026100023F44073FB602E4B01221A602C4B0022E6
:102620001A60294AFB681362FB6803F00103002B60
:1026300014D0FEF793FA38610AE0FEF78FFA0246EB
:102640003B69D31A41F28832934201D9032336E021
:102650001D4B1B6A03F00203002BEED01A4B1B6AC2
:1026600023F440727B685B68174913430B62FB7D60
:10267000012B05D1144BDB69134A23F08053D3613E
:102680007B681B6803F00203002B08D00E4B5B68CD
:1026900023F440427B689B680B4913434B607B6883
:1026A0001B6803F01003002B08D0074B5B6823F472
:1026B00080027B68DB68044913434B6000231846A3
:1026C0001837BD4680BD00BF0010024000700040BA
:1026D0004004424280B588B000AF786000237B613F
:1026E0000023FB6100233B610023FB600023BB61EF
:1026F0007B68102B0AD07B68102B00F28A807B68E5
:10270000012B45D07B68022B75D082E0464B5B687D
:10271000FB60454B1B6803F08073002B7BD0FB688C
:102720009B0C03F00F03414AD35C3B61FB6803F44D
:102730008033002B15D03C4B5B685B0C03F001032E
:102740003B4AD35C7B61FB6803F48033002B0DD0E4
:10275000384A7B69B2FBF3F23B6902FB03F3FB618E
:1027600004E03B69344A02FB03F3FB612E4B5B68D8
:1027700003F48003B3F5800F02D1FB69BB614AE02B
:10278000FB695B002D4AA2FB03235B08BB6142E0AF
:10279000254B1B6AFB60FB6803F44073B3F5807F35
:1027A00008D1FB6803F00203002B03D04FF4004371
:1027B000BB611FE0FB6803F44073B3F5007F09D1F0
:1027C000194B5B6A03F00203002B03D049F6404328
:1027D000BB610FE0FB6803F44073B3F5407F1CD18D
:1027E000114B1B6803F40033002B16D04FF2244327
:1027F000BB6112E011E0FFF73BFE02460A4B5B684B
:102800009B0B03F0030301335B00B2FBF3F3BB61EB
:1028100004E000BF02E000BF00E000BFBB69184653
:102820002037BD4680BD00BF00100240544600085E
:102830006446000800127A0000093D00ABAAAAAA6B
:1028400080B582B000AF78607B68002B01D1012396
:1028500041E07B6893F83D30DBB2002B06D17B680A
:10286000002283F83C20786800F039F87B68022267
:1028700083F83D207B681A687B680433194610464C
:1028800000F0B4F97B68012283F846207B680122BE
:1028900083F83E207B68012283F83F207B68012279
:1028A00083F840207B68012283F841207B68012265
:1028B00083F842207B68012283F843207B68012251
:1028C00083F844207B68012283F845207B6801223D
:1028D00083F83D20002318460837BD4680BD80B4EC
:1028E00083B000AF786000BF0C37BD4680BC704736
:1028F00080B485B000AF78607B6893F83D30DBB280
:10290000012B01D001233AE07B68022283F83D20AD
:102910007B681B68DA687B681B6842F00102DA603A
:102920007B681B68184A93420ED07B681B68B3F122
:10293000804F09D07B681B68144A934204D07B689F
:102940001B68134A934211D17B681B689B6803F094
:102950000703FB60FB68062B10D07B681B681A68B6
:102960007B681B6842F001021A6007E07B681B6805
:102970001A687B681B6842F001021A60002318463F
:102980001437BD4680BC7047002C01400004004055
:102990000008004080B582B000AF78607B681B689B
:1029A0001B6903F00203022B22D17B681B68DB68E2
:1029B00003F00203022B1BD17B681B686FF002023D
:1029C0001A617B6801221A777B681B689B6903F098
:1029D0000303002B03D0786800F0EDF805E0786879
:1029E00000F0E0F8786800F0EFF87B6800221A77D2
:1029F0007B681B681B6903F00403042B22D17B68EE
:102A00001B68DB6803F00403042B1BD17B681B6885
:102A10006FF004021A617B6802221A777B681B68D8
:102A20009B6903F44073002B03D0786800F0C3F86F
:102A300005E0786800F0B6F8786800F0C5F87B68C3
:102A400000221A777B681B681B6903F00803082BB8
:102A500022D17B681B68DB6803F00803082B1BD1BD
:102A60007B681B686FF008021A617B6804221A7782
:102A70007B681B68DB6903F00303002B03D07868D5
:102A800000F099F805E0786800F08CF8786800F0BC
:102A90009BF87B6800221A777B681B681B6903F030
:102AA0001003102B22D17B681B68DB6803F0100336
:102AB000102B1BD17B681B686FF010021A617B68BA
:102AC00008221A777B681B68DB6903F44073002BCC
:102AD00003D0786800F06FF805E0786800F062F8DD
:102AE000786800F071F87B6800221A777B681B68B1
:102AF0001B6903F00103012B0ED17B681B68DB68A7
:102B000003F00103012B07D17B681B686FF0010202
:102B10001A617868FDF714FE7B681B681B6903F077
:102B20008003802B0ED17B681B68DB6803F0800379
:102B3000802B07D17B681B686FF080021A61786870
:102B400000F0BFF87B681B681B6903F04003402B53
:102B50000ED17B681B68DB6803F04003402B07D174
:102B60007B681B686FF040021A61786800F035F8E6
:102B70007B681B681B6903F02003202B0ED17B6848
:102B80001B68DB6803F02003202B07D17B681B68E0
:102B90006FF020021A61786800F08AF800BF0837E9
:102BA000BD4680BD80B483B000AF786000BF0C37F5
:102BB000BD4680BC704780B483B000AF786000BF72
:102BC0000C37BD4680BC704780B483B000AF7860DE
:102BD00000BF0C37BD4680BC704780B483B000AFE7
:102BE000786000BF0C37BD4680BC704780B485B0AC
:102BF00000AF786039607B681B68FB607B68294A9E
:102C000093420BD07B68B3F1804F07D07B68264A94
:102C1000934203D07B68254A934208D1FB6823F096
:102C20007003FB603B685B68FA681343FB607B687A
:102C30001C4A93420BD07B68B3F1804F07D07B686E
:102C4000194A934203D07B68184A934208D1FB6823
:102C500023F44073FB603B68DB68FA681343FB6056
:102C6000FB6823F080023B685B691343FB607B6871
:102C7000FA681A603B689A687B68DA623B681A688F
:102C80007B689A627B68074A934203D13B681A6962
:102C90007B681A637B6801225A6100BF1437BD4606
:102CA00080BC7047002C0140000400400008004038
:102CB00080B483B000AF786000BF0C37BD4680BCE5
:102CC000704780B483B000AF786000BF0C37BD465A
:102CD00080BC704780B582B000AF78607B68002B05
:102CE00001D1012342E07B6893F84130DBB2002B35
:102CF00006D17B68002283F840207868FDF7F8FD54
:102D00007B68242283F841207B681B68DA687B6833
:102D10001B6822F40052DA60786800F01DF97B68C5
:102D20001B681A697B681B6822F490421A617B68F1
:102D30001B685A697B681B6822F02A025A617B680B
:102D40001B68DA687B681B6842F40052DA607B68B3
:102D500000225A647B68202283F841207B6820226D
:102D600083F842207B6800225A6300231846083704
:102D7000BD4680BD80B58AB002AFF860B9603B60E7
:102D80001346FB8000237B61FB6893F84130DBB284
:102D9000202B6DD1BB68002B02D0FB88002B01D10A
:102DA000012366E0FB6800225A64FB68212283F855
:102DB0004120FDF7D3FE7861FB68FA889A84FB68AE
:102DC000FA88DA84FB689B68B3F5805F08D1FB68FA
:102DD0001B69002B04D10023FB61BB68BB6103E0CE
:102DE000BB68FB610023BB612AE03B6800937B6901
:102DF00000228021F86800F040F80346002B01D043
:102E0000032336E0FB69002B0BD1BB691B881A46F4
:102E1000FB681B68C2F308025A60BB690233BB61DE
:102E200007E0FB691A78FB681B685A60FB6901338D
:102E3000FB61FB68DB8C9BB2013B9AB2FB68DA84D6
:102E4000FB68DB8C9BB2002BCFD13B6800937B6986
:102E500000224021F86800F010F80346002B01D052
:102E6000032306E0FB68202283F84120002300E0D2
:102E7000022318462037BD4680BD80B590B000AF14
:102E8000F860B9603B601346FB7150E0BB6CB3F176
:102E9000FF3F4CD0BB6C002B07D0FDF75FFE024616
:102EA0003B68D31ABA6C9A4241D2FB681B680C3358
:102EB000BB62BB6A53E8003F7B627B6A23F4D0733A
:102EC000FB63FB681B680C33FA6B7A633B63396BFB
:102ED0007A6B41E80023FB62FB6A002BE5D1FB68BB
:102EE0001B6814337B617B6953E8003F3B613B699E
:102EF00023F00103BB63FB681B681433BA6B3A62AF
:102F0000FB61F9693A6A41E80023BB61BB69002BA8
:102F1000E5D1FB68202283F84120FB68202283F85A
:102F20004220FB68002283F8402003230FE0FB6867
:102F30001B681A68BB681340BA689A420CBF012329
:102F40000023DBB21A46FB799A429FD00023184631
:102F50004037BD4680BD000080B584B000AF7860CA
:102F60007B681B681B6923F440517B68DA687B68C7
:102F70001B680A431A617B689A687B681B691A435D
:102F80007B685B691343BB607B681B68DB6823F469
:102F9000B05323F00C037A681268B9680B43D3600E
:102FA0007B681B685B6923F440717B689A697B6866
:102FB0001B680A435A617B681B682C4A934203D101
:102FC000FFF756FAF86002E0FFF73EFAF860FA6899
:102FD00013469B0013449A001A447B685B689B006D
:102FE000B2FBF3F3224AA2FB03235B091901FA683F
:102FF00013469B0013449A001A447B685B689B004D
:10300000B2FBF3F21A4BA3FB02035B09642000FB43
:1030100003F3D31A1B013233154AA2FB03235B09C6
:1030200003F0F0031944FA6813469B0013449A0016
:103030001A447B685B689B00B2FBF3F20C4BA3FB6A
:1030400002035B09642000FB03F3D31A1B01323334
:10305000074AA2FB03235B0903F00F027B681B688E
:103060000A449A6000BF1037BD4680BD0038014059
:103070001F85EB5180B485B000AF0346FB80002371
:10308000FB60B7F90630842B05D0B7F90620FB6842
:1030900013440333FB60FB6818461437BD4680BCFD
:1030A000704780B500AF00F0D7FA0023184680BD06
:1030B000F0B589B004AF786039607B685B69002B3C
:1030C00020D07B689B69002B1CD07B685C687B6888
:1030D0001D687B681E697B68B3F908301846FFF7E6
:1030E000C9FF01467B685B697A6892690292019325
:1030F00000913B6832462946204600F0E8F8034636
:10310000FB601CE07B685C687B681D687B681B69F2
:103110009EB27B68B3F908301846FFF7ABFF024652
:1031200007F10C03019300923B6832462946204682
:1031300000F02CF90346012B01D0002300E0FB68CE
:1031400018461437BD46F0BD80B584B000AF786036
:103150007B68FB60FB68002B01D0FB6800E001236B
:10316000184600F043FA002318461037BD4680BDCC
:1031700080B483B000AF78607B6803F108027B689D
:103180005A607B684FF0FF329A607B6803F1080257
:103190007B68DA607B6803F108027B681A617B68F0
:1031A00000221A6000BF0C37BD4680BC704780B457
:1031B00083B000AF78607B6800221A6100BF0C37D3
:1031C000BD4680BC704780B485B000AF7860396080
:1031D0007B685B68FB603B68FA685A60FB689A68CA
:1031E0003B689A60FB689B683A685A60FB683A687B
:1031F0009A603B687A681A617B681B685A1C7B6816
:103200001A6000BF1437BD4680BC704780B485B0DB
:1032100000AF786039603B681B68BB60BB68B3F186
:10322000FF3F03D17B681B69FB600CE07B680833C0
:10323000FB6002E0FB685B68FB60FB685B681B6827
:10324000BA689A42F6D2FB685A683B685A603B6893
:103250005B683A689A603B68FA689A60FB683A680B
:103260005A603B687A681A617B681B685A1C7B68E5
:103270001A6000BF1437BD4680BC704780B485B06B
:1032800000AF78607B681B69FB607B685B687A686D
:1032900092689A607B689B687A6852685A60FB689B
:1032A0005B687A689A4203D17B689A68FB685A60C7
:1032B0007B6800221A61FB681B685A1EFB681A6053
:1032C000FB681B6818461437BD4680BC704780B544
:1032D0008EB004AFF860B9607A603B607B6B002B06
:1032E0000BD14FF0500383F31188BFF36F8FBFF3FF
:1032F0004F8F3B6200BF00BFFDE7BB6B002B0BD1C4
:103300004FF0500383F31188BFF36F8FBFF34F8FDC
:10331000FB6100BF00BFFDE754233B613B69542BB9
:103320000BD04FF0500383F31188BFF36F8FBFF3BF
:103330004F8FBB6100BF00BFFDE7BB6B002B1ED0F2
:103340007B6B002B1BD0BB6B7B627B6A7A6B1A6337
:103350007B6A022283F85120002303937B6A029345
:1033600007F1140301933B6B00933B687A68B968DB
:10337000F86800F050F8786A00F0CEF801E0002319
:103380007B617B6918462837BD4680BD80B58CB00F
:1033900004AFF860B9603B601346FB80FB889B007C
:1033A000184600F075FE78617B69002B0ED0542022
:1033B00000F06EFEF861FB69002B03D0FB697A69AF
:1033C0001A6305E0786900F02BFF01E00023FB6140
:1033D000FB69002B17D0FB69002283F85120FA8883
:1033E00000230393FB690293FB6A0193BB6A00937A
:1033F0003B68B968F86800F00EF8F86900F08CF8DE
:103400000123BB6102E04FF0FF33BB61BB6918468B
:103410002037BD4680BD80B588B000AFF860B96088
:103420007A603B603B6B1A6B7B6803F18043013B26
:103430009B001344BB61BB6923F00703BB61BB69FD
:1034400003F00703002B0BD04FF0500383F31188D8
:10345000BFF36F8FBFF34F8F7B6100BF00BFFDE7EE
:103460000023FB6112E0BA68FB69134419783A6BD8
:10347000FB69134434330A461A70BA68FB69134473
:103480001B78002B06D0FB690133FB61FB690F2B16
:10349000E9D900E000BF3B6B002283F84320BB6A00
:1034A000062B01D90623BB623B6BBA6ADA623B6B1F
:1034B000BA6A5A643B6B00229A643B6B0433184629
:1034C000FFF775FE3B6B18331846FFF770FE3B6B3A
:1034D0003A6B1A61BB6AC3F107023B6B9A613B6BA3
:1034E0003A6B5A623B6B0022DA643B6B002283F832
:1034F00050203A68F968B86900F016FC02463B6B48
:103500001A60FB6A002B02D0FB6A3A6B1A6000BF9C
:103510002037BD4680BD000080B582B000AF786026
:1035200000F0F4FC2A4B1B680133294A1360294B35
:103530001B68002B09D1274A7B681360244B1B684A
:10354000012B10D100F0C8FA0DE0234B1B68002BB3
:1035500009D1204B1B68DA6A7B68DB6A9A4202D881
:103560001C4A7B6813601D4B1B6801331B4A1360A8
:103570007B68DB6A01229A40194B1B681343184A87
:1035800013607B68DA6A13469B0013449B00154A5C
:103590001A447B68043319461046FFF714FE00F006
:1035A000E5FC0D4B1B68002B0ED00A4B1B68DA6A3A
:1035B0007B68DB6A9A4207D20B4B4FF080521A604D
:1035C000BFF34F8FBFF36F8F00BF0837BD4680BD7D
:1035D0009C0400209C030020A8040020B8040020C4
:1035E000A4040020A003002004ED00E080B584B016
:1035F00000AF78600023FB607B68002B18D0144B71
:103600001B68002B0BD04FF0500383F31188BFF3DE
:103610006F8FBFF34F8FBB6000BF00BFFDE700F0AF
:103620007DF80021786800F019FB00F085F8F8605B
:10363000FB68002B07D1074B4FF080521A60BFF395
:103640004F8FBFF36F8F00BF1037BD4680BD00BFE7
:10365000C404002004ED00E080B58AB004AF00236C
:10366000BB6000237B603A46391D07F1080318460A
:10367000FCF776FD39687B68BA68029201930023F3
:10368000009300230A461F491F48FFF720FE034608
:103690001E4A13601D4B1B68002B02D001237B6167
:1036A00001E000237B617B69012B16D14FF05003B1
:1036B00083F31188BFF36F8FBFF34F8F3B6100BF60
:1036C000134B4FF0FF321A60124B01221A60124B5B
:1036D00000221A6000F0A8FB0FE07B69B3F1FF3F06
:1036E0000BD14FF0500383F31188BFF36F8FBFF3FB
:1036F0004F8FFB6000BF00BFFDE700BF1837BD461E
:1037000080BD00BF20460008A93A0008C004002080
:10371000BC040020A8040020A004002080B400AF56
:10372000044B1B680133034A136000BFBD4680BCD5
:10373000704700BFC404002080B584B000AF0023F0
:10374000FB600023BB60424B1B68002B0BD14FF08A
:10375000500383F31188BFF36F8FBFF34F8F3B602C
:1037600000BF00BFFDE700F0D1FB394B1B68013BF8
:10377000374A1360364B1B68002B61D1354B1B68F1
:10378000002B5DD02EE0344BDB68DB68FB60FB6810
:1037900018331846FFF772FDFB6804331846FFF72D
:1037A0006DFDFB68DB6A01229A402C4B1B681343BA
:1037B0002A4A1360FB68DA6A13469B0013449B0095
:1037C000274A1A44FB68043319461046FFF7FBFCEE
:1037D000FB68DA6A234B1B68DB6A9A4202D3224BEE
:1037E00001221A601C4B1B68002BCCD1FB68002BFC
:1037F00001D000F00FFA1D4B1B687B607B68002B2B
:1038000010D000F037F80346002B02D0164B0122EF
:103810001A607B68013B7B607B68002BF1D1134B06
:1038200000221A60104B1B68002B09D00123BB60DB
:103830000F4B4FF080521A60BFF34F8FBFF36F8F63
:1038400000F094FBBB6818461037BD4680BD00BF32
:10385000C40400209C0400205C040020A404002078
:10386000A00300209C030020B0040020AC04002032
:1038700004ED00E080B586B000AF00237B61514BC2
:103880001B68002B40F08E804F4B1B6801333B615F
:103890004D4A3B6913603B69002B21D14B4B1B68A0
:1038A0001B68002B0BD04FF0500383F31188BFF33C
:1038B0006F8FBFF34F8F3B6000BF00BFFDE7434BEF
:1038C0001B68FB60424B1B68404A1360404AFB6820
:1038D0001360404B1B6801333E4A136000F09AF9B5
:1038E0003D4B1B683A699A424DD3384B1B681B68A5
:1038F000002B01D1012300E00023002B04D0364B24
:103900004FF0FF321A603EE0304B1B68DB68DB682B
:10391000BB60BB685B687B603A697B689A4203D294
:103920002D4A7B6813602EE0BB6804331846FFF70E
:10393000A5FCBB689B6A002B04D0BB6818331846F3
:10394000FFF79CFCBB68DB6A01229A40234B1B6893
:103950001343224A1360BB68DA6A13469B00134480
:103960009B001F4A1A44BB68043319461046FFF7F0
:103970002AFCBB68DA6A1B4B1B68DB6A9A42B4D329
:1039800001237B61B1E7174B1B68DA6A14491346C0
:103990009B0013449B000B441B68012B07D9012398
:1039A0007B6104E0104B1B6801330F4A13600F4B1F
:1039B0001B68002B01D001237B617B6918461837F7
:1039C000BD4680BDC4040020A00400205404002093
:1039D00058040020B4040020BC040020A4040020EB
:1039E000A00300209C030020AC040020B0040020B1
:1039F00080B487B000AF274B1B68002B03D0264B49
:103A000001221A6040E0244B00221A60234B1B68FD
:103A1000FB60FB68B3FA83F3FB72FB7AC3F11F030D
:103A20007B611F497A6913469B0013449B000B443A
:103A30001B68002B0BD14FF0500383F31188BFF3A9
:103A40006F8FBFF34F8F7B6000BF00BFFDE77A69C8
:103A500013469B0013449B00114A13443B613B698E
:103A60005B685A683B695A603B695A683B6908332E
:103A70009A4204D13B695B685A683B695A603B696A
:103A80005B68DB68074A136000BF1C37BD4680BC1B
:103A9000704700BFC4040020B0040020A40400202C
:103AA000A00300209C03002080B582B000AF7860A6
:103AB00000F052F8064B1B68012BF9D9054B4FF06B
:103AC00080521A60BFF34F8FBFF36F8FF0E700BFD4
:103AD000A003002004ED00E080B582B000AF002319
:103AE0007B600CE07A6813469B0013449B00124AEB
:103AF00013441846FFF73CFB7B6801337B607B680F
:103B0000062BEFD90D48FFF733FB0D48FFF730FBCD
:103B10000C48FFF72DFB0C48FFF72AFB0B48FFF77B
:103B200027FB0B4B054A1A600A4B054A1A6000BF77
:103B30000837BD4680BD00BFA00300202C04002034
:103B4000400400205C040020700400208804002051
:103B5000540400205804002080B582B000AF19E062
:103B600000F0D4F9104BDB68DB687B607B680433C2
:103B70001846FFF783FB0D4B1B68013B0B4A136094
:103B80000B4B1B68013B0A4A136000F0EFF97868A1
:103B900000F010F8064B1B68002BE1D100BF00BFFE
:103BA0000837BD4680BD00BF700400209C04002083
:103BB0008404002080B584B000AF78607B6893F8FF
:103BC0005130002B08D17B681B6B184600F028FB96
:103BD000786800F025FB19E07B6893F85130012BE1
:103BE00003D1786800F01CFB10E07B6893F851303B
:103BF000022B0BD04FF0500383F31188BFF36F8F6C
:103C0000BFF34F8FFB6000BF00BFFDE700BF103761
:103C1000BD4680BD80B483B000AF0E4B1B681B68EF
:103C2000002B01D1012300E00023002B04D00A4B1C
:103C30004FF0FF321A6008E0064B1B68DB68DB6858
:103C40007B607B685B68044A136000BF0C37BD462D
:103C500080BC704754040020BC04002080B584B0B0
:103C600000AF78603960294B1B68FB60284B1B68EC
:103C700004331846FFF702FB0346002B0BD1244BFD
:103C80001B68DB6A012202FA03F3DA43214B1B684B
:103C90001340204A13607B68B3F1FF3F0AD13B68B1
:103CA000002B07D01A4B1B68043319461A48FFF73C
:103CB0008AFA26E0FA687B681344BB60144B1B68E1
:103CC000BA685A60BA68FB689A4209D2134B1A68FC
:103CD0000F4B1B68043319461046FFF797FA10E0A4
:103CE0000F4B1A680A4B1B68043319461046FFF73E
:103CF0008DFA0C4B1B68BA689A4202D2094ABB681B
:103D0000136000BF1037BD4680BD00BFA004002077
:103D10009C030020A40400208804002058040020F4
:103D200054040020BC04002080B485B000AFF860CB
:103D3000B9607A60FB68043BFB60FB684FF08072FF
:103D40001A60FB68043BFB60BB6823F00102FB6860
:103D50001A60FB68043BFB60084AFB681A60FB685A
:103D6000143BFB607A68FB681A60FB68203BFB60D1
:103D7000FB6818461437BD4680BC7047813D00087B
:103D800080B485B000AF00237B60124B1B68B3F199
:103D9000FF3F0BD04FF0500383F31188BFF36F8FB9
:103DA000BFF34F8FFB6000BF00BFFDE74FF0500334
:103DB00083F31188BFF36F8FBFF34F8FBB6000BFDA
:103DC00000BF7B68002BFCD000BF00BF1437BD468E
:103DD00080BC70470C0000200000000000000000C4
:103DE000074B19680868B0E8F00F80F30988BFF343
:103DF0006F8F4FF0000080F311884EF00D0E70476A
:103E00009C03002000BF00BF06480068006880F3E4
:103E1000088862B661B6BFF34F8FBFF36F8F00DFC4
:103E200000BF00BF08ED00E080B584B000AF324BAA
:103E3000FB60FB681B78DBB27B60FB68FF221A70BB
:103E4000FB681B78DBB2FB70FB78DBB203F050033E
:103E5000DAB22A4B1A702A4B07221A6009E0284B63
:103E60001B68013B264A1360FB78DBB25B00DBB2C8
:103E7000FB70FB78DBB203F08003802BEFD0204B8C
:103E80001B68C3F10703042B0BD04FF0500383F3DF
:103E90001188BFF36F8FBFF34F8FBB6000BF00BFB0
:103EA000FDE7174B1B681B02154A1360144B1B6878
:103EB00003F4E063124A13607B68DAB2FB681A709D
:103EC000104B1B680F4A43F4700313600D4B1B68C3
:103ED0000C4A43F07043136000F0B8F80A4B00221C
:103EE0001A60FFF791FFFFF783FDFFF749FF0023FB
:103EF00018461037BD4680BD00E400E0C80400202D
:103F0000CC04002020ED00E00C00002080B483B041
:103F100000AF4FF0500383F31188BFF36F8FBFF3EF
:103F20004F8F7B6000BF0F4B1B6801330D4A13603E
:103F30000C4B1B68012B10D10B4B1B68DBB2002B09
:103F40000BD04FF0500383F31188BFF36F8FBFF393
:103F50004F8F3B6000BF00BFFDE700BF0C37BD4681
:103F600080BC70470C00002004ED00E080B483B0FA
:103F700000AF124B1B68002B0BD14FF0500383F3A3
:103F80001188BFF36F8FBFF34F8F7B6000BF00BFFF
:103F9000FDE70A4B1B68013B084A1360074B1B688F
:103FA000002B05D100233B603B6883F3118800BFE1
:103FB00000BF0C37BD4680BC704700BF0C0000201E
:103FC000EFF30980BFF36F8F0D4B1A6820E9F00FF4
:103FD00010602DE908404FF0500080F31188FFF782
:103FE00007FD4FF0000080F31188BDE80840196814
:103FF0000868B0E8F00F80F30988BFF36F8F70474F
:104000009C03002000BF00BF80B582B000AF4FF01E
:10401000500383F31188BFF36F8FBFF34F8F7B6023
:1040200000BFFFF727FC0346002B03D0064B4FF0E1
:1040300080521A6000233B603B6883F3118800BF05
:1040400000BF0837BD4680BD04ED00E080B400AF7E
:104050000A4B00221A600A4B00221A60094B1B68A7
:10406000094AA2FB03239B09084A013B1360034B47
:1040700007221A6000BFBD4680BC704710E000E018
:1040800018E000E000000020D34D621014E000E0D2
:1040900080B58AB000AF78600023FB61FFF73EFB7C
:1040A0005A4B1B68002B01D100F016F9584B1A68C7
:1040B0007B681340002B40F090807B68002B1ED063
:1040C00008227B6813447B607B6803F00703002BA6
:1040D00015D07B6823F0070308337B607B6803F00F
:1040E0000703002B0BD04FF0500383F31188BFF36D
:1040F0006F8FBFF34F8F7B6100BF00BFFDE77B6811
:10410000002B6AD0434B1B687A689A4265D8424BB1
:104110003B62414B1B687B6204E07B6A3B627B6ACB
:104120001B687B627B6A5B687A689A4203D97B6A08
:104130001B68002BF1D1354B1B687A6A9A424CD030
:104140003B6A1B6808221344FB617B6A1A683B6A5E
:104150001A607B6A5A687B68D21A08235B009A420D
:1041600020D97A6A7B681344BB61BB6903F00703FB
:10417000002B0BD04FF0500383F31188BFF36F8FE8
:10418000BFF34F8F3B6100BF00BFFDE77B6A5A68FA
:104190007B68D21ABB695A607B6A7A685A60B869D0
:1041A00000F0FCF81B4B1A687B6A5B68D31A194A4B
:1041B0001360184B1A68194B1B689A4203D2154BAF
:1041C0001B68164A13607B6A5A68114B1B681A43B6
:1041D0007B6A5A607B6A00221A60FFF7ADFAFB69BE
:1041E00003F00703002B0BD04FF0500383F311882B
:1041F000BFF36F8FBFF34F8FFB6000BF00BFFDE7C2
:10420000FB6918462837BD4680BD00BFD810002086
:10421000E4100020DC100020D0100020E01000206E
:1042200080B586B000AF78607B687B617B68002BCF
:104230004AD008235B427A6913447B617B693B6106
:104240003B695A68224B1B681340002B0BD14FF07F
:10425000500383F31188BFF36F8FBFF34F8FFB6061
:1042600000BF00BFFDE73B691B68002B0BD04FF080
:10427000500383F31188BFF36F8FBFF34F8FBB6081
:1042800000BF00BFFDE73B695A68114B1B68134034
:10429000002B19D03B691B68002B15D13B695A686C
:1042A0000B4B1B68DB431A403B695A60FFF736FA39
:1042B0003B695A68074B1B681344064A1360386908
:1042C00000F06CF8FFF738FA00BF1837BD4680BD24
:1042D000E4100020DC10002080B485B000AF4FF463
:1042E0004063BB60274BFB60FB6803F00703002BB8
:1042F0000CD0FB680733FB60FB6823F00703FB600F
:10430000BA68FB68D31A1F4A1344BB60FB687B6022
:104310001D4A7B6813601C4B00225A607B68BA6898
:104320001344FB600822FB689B1AFB60FB6823F0C8
:104330000703FB60FB68154A1360144B1B680022DF
:104340005A60124B1B6800221A607B683B603B6816
:10435000FA68D21A3B685A600C4B1A683B681A60BC
:104360003B685B680A4A13603B685B68094A1360F4
:10437000094B4FF000421A6000BF1437BD4680BCA5
:10438000704700BFD0040020D0100020D8100020BB
:10439000E0100020DC100020E410002080B485B084
:1043A00000AF7860274BFB6002E0FB681B68FB6096
:1043B000FB681B687A689A42F7D8FB68BB60FB68A9
:1043C0005B68BA6813447A689A4208D1FB685A68F5
:1043D0007B685B681A44FB685A60FB687B607B689B
:1043E000BB607B685B68BA681A44FB681B689A42CA
:1043F00018D1FB681A68144B1B689A420DD07B6871
:104400005A68FB681B685B681A447B685A60FB68E3
:104410001B681A687B681A6008E00B4B1A687B6897
:104420001A6003E0FB681A687B681A60FA687B68A8
:104430009A4202D0FB687A681A6000BF1437BD4602
:1044400080BC7047D0100020D810002003460244E2
:10445000934200D1704703F8011BF9E770B50026BD
:104460000C4D0D4C641BA410A64209D100F01AF8A3
:1044700000260A4D0A4C641BA410A64205D170BD4B
:1044800055F8043B98470136EEE755F8043B98474A
:104490000136F2E7704600087046000870460008D2
:1044A00074460008F8B500BFF8BC08BC9E467047CB
:0C44B000F8B500BFF8BC08BC9E46704781
:1044BC006D6F6973747572655461736B00000000E5
:1044CC00BC440008F10400080000000000000000DB
:1044DC00000100000000000000000000776174651E
:1044EC0072696E675461736B00000000E844000849
:1044FC00AD050008010000000000000000010000F4
:10450C00000000000000000063616E5461736B00DA
:10451C001445000891060008FFFF00000000000091
:10452C000001000000000000000000004D6F6973E6
:10453C0074757265205461736B2053746172746569
:10454C00640A000041444320436F6E7665727369C0
:10455C006F6E20537461727465640A004144432089
:10456C00436F6E76657273696F6E204661696C6518
:10457C00640A00004D6F6973747572652054617321
:10458C006B2053746F707065640A0000576174651A
:10459C0072696E67205461736B2053746172746519
:1045AC00640A00005761746572696E672050756DFE
:1045BC007020537461727465640A000057617465ED
:1045CC0072696E672050756D702053746F707065D2
:1045DC00640A00005761746572696E6720546173D8
:1045EC006B2053746F707065640A000043414E2059
:1045FC005461736B20537461727465640A0000001B
:10460C0043414E205461736B2053746F707065641A
:10461C000A00000049444C45000000000000000066
:10462C000000000001020304060708090000000056
:10463C000102030402030405060708090A0B0C0D0A
:10464C000E0F1010010200000203040506070809F2
:0C465C000A0B0C0D0E0F101001020000E4
:08466800E8BAFF7F0100000029
:044670003501000808
:044674001101000828
:104678000024F4001000000001000000AAAAAAAA61
:0400000508000AC124
:00000001FF
